:020000040800F2
:1000000000000A2089450008F91B0008FB1B0008B6
:10001000FD1B0008FF1B0008011C00080000000079
:10002000000000000000000000000000031C0008A9
:10003000051C000800000000071C0008091C00083F
:10004000D9450008D9450008D9450008D945000818
:10005000D9450008D9450008111C0008D9450008F9
:10006000D9450008D9450008D9450008D9450008F8
:10007000D9450008D9450008D9450008D9450008E8
:10008000D9450008D9450008D9450008D9450008D8
:10009000D9450008D9450008D9450008D9450008C8
:1000A000D9450008D9450008D9450008D9450008B8
:1000B000D9450008D9450008D9450008D9450008A8
:1000C000D9450008D9450008D9450008D945000898
:1000D000D9450008D9450008D9450008D945000888
:1000E000151C0008D9450008D9450008D945000865
:1000F000D9450008D9450008D9450008000000008E
:10010000D9450008D9450008D9450008D945000857
:10011000D9450008D9450008D9450008D945000847
:10012000D9450008D9450008D9450008D945000837
:10013000D9450008D9450008D9450008D945000827
:10014000D9450008D9450008D9450008D945000817
:10015000D9450008D9450008D9450008D945000807
:10016000D9450008D9450008D9450008D9450008F7
:10017000D9450008D945000800000000D94500080D
:10018000D9450008D9450008D9450008D9450008D7
:10019000D9450008D9450008000000000000000013
:1001A0000000000000000000D9450008D945000803
:1001B000D9450008D9450008D945000800000000CD
:1001C00001F0FF01102A2BDB10F0070F08D010F808
:1001D000013B013A8B422DD010F0070F42B3F6D10C
:1001E000F0B441EA012141EA014122F007047FF025
:1001F00000070023F0E80256083C85EA010586EA7C
:10020000010685FA47F5A3FA87F586FA47F6A5FAB7
:1002100087F68EB9EED1F0BC01F0FF0102F00702C3
:1002200032B110F8013B013A83EA010313B1F8D16E
:100230000020704701387047002D06BF354603384F
:10024000073815F0010F07D1013015F4807F02BF88
:10025000013015F4C03F0130F0BC0138704700BFD9
:1002600081F0004102E000BF83F0004330B54FEA67
:1002700041044FEA430594EA050F08BF90EA020FD4
:100280001FBF54EA000C55EA020C7FEA645C7FEA67
:10029000655C00F0E2804FEA5454D4EB5555B8BF8A
:1002A0006D420CDD2C4480EA020281EA030382EAFB
:1002B000000083EA010180EA020281EA0303362D8D
:1002C00088BF30BD11F0004F4FEA01314FF4801C60
:1002D0004CEA113102D0404261EB410113F0004F72
:1002E0004FEA03334CEA133302D0524263EB430329
:1002F00094EA050F00F0A780A4F10104D5F1200EC7
:100300000DDB02FA0EFC22FA05F2801841F1000121
:1003100003FA0EF2801843FA05F359410EE0A5F1F5
:1003200020050EF1200E012A03FA0EFC28BF4CF026
:10033000020C43FA05F3C01851EBE37101F00045DC
:1003400007D54FF0000EDCF1000C7EEB00006EEBE9
:100350000101B1F5801F1BD3B1F5001F0CD3490873
:100360005FEA30004FEA3C0C04F101044FEA4452CA
:1003700012F5800F80F09A80BCF1004F08BF5FEA51
:10038000500C50F1000041EB045141EA050130BD31
:100390005FEA4C0C404141EB0101013C28BFB1F543
:1003A000801FE9D291F0000F04BF01460020B1FA8E
:1003B00081F308BF2033A3F10B03B3F120020CDA61
:1003C0000C3208DD02F1140CC2F10C0201FA0CF03F
:1003D00021FA02F10CE002F11402D8BFC2F1200CA4
:1003E00001FA02F120FA0CFCDCBF41EA0C0190405A
:1003F000E41AA2BF01EB0451294330BD6FEA0404A3
:100400001F3C1CDA0C340EDC04F11404C4F120028D
:1004100020FA04F001FA02F340EA030021FA04F39F
:1004200045EA030130BDC4F10C04C4F1200220FAF6
:1004300002F001FA04F340EA0300294630BD21FA34
:1004400004F0294630BD94F0000F83F4801306BFFA
:1004500081F480110134013D4EE77FEA645C18BFEE
:100460007FEA655C29D094EA050F08BF90EA020F85
:1004700005D054EA000C04BF1946104630BD91EA7D
:10048000030F1EBF0021002030BD5FEA545C05D180
:100490004000494128BF41F0004130BD14F58004BF
:1004A0003CBF01F5801130BD01F0004545F0FE4133
:1004B00041F470014FF0000030BD7FEA645C1ABF68
:1004C000194610467FEA655C1CBF0B46024650EA9F
:1004D000013406BF52EA033591EA030F41F40021CB
:1004E00030BD00BF90F0000F04BF0021704730B551
:1004F0004FF4806404F132044FF000054FF0000126
:1005000050E700BF90F0000F04BF0021704730B5E6
:100510004FF4806404F1320410F0004548BF4042BB
:100520004FF000013EE700BF42004FEAE2014FEA10
:1005300031014FEA02701FBF12F07F4393F07F4FEB
:1005400081F06051704732F07F4208BF704793F0EE
:100550007F4F04BF41F40021704730B54FF4607401
:1005600001F0004521F000411CE700BF50EA010204
:1005700008BF704730B54FF000050AE050EA0102AD
:1005800008BF704730B511F0004502D5404261EB1D
:1005900041014FF4806404F132045FEA915C3FF45E
:1005A000D8AE4FF003025FEADC0C18BF03325FEAFB
:1005B000DC0C18BF033202EBDC02C2F1200300FAAC
:1005C00003FC20FA02F001FA03FE40EA0E0021FAD1
:1005D00002F11444BDE600BF4FEA4102B2F1E0432C
:1005E00024BFB3F5001CDCF1FE5C0DD901F0004C1A
:1005F0004FEAC0024CEA5070B2F1004F40EB83006A
:1006000008BF20F00100704711F0804F21D113F195
:100610003872BCBF01F00040704741F480114FEACE
:100620005252C2F11802C2F1200C10FA0CF320FA57
:1006300002F018BF40F001004FEAC1234FEAD32374
:1006400003FA0CFC40EA0C0023FA02F34FEA4303DE
:10065000CCE77FEA625307D150EA01331EBF4FF067
:10066000FE4040F44000704701F0004040F0FE4082
:1006700040F40000704700BF53B94AB9002908BFD1
:1006800000281CBF4FF0FF314FF0FF3000F00CB8D6
:10069000ADF1080C6DE904CE05F08CF8DDF804E04E
:1006A000DDE9022304B07047704700BF10B5054C68
:1006B000237833B9044B13B10448AFF3008001230E
:1006C000237010BD8000002000000000545A000874
:1006D00008B5034B1BB103490348AFF3008008BDC5
:1006E0000000000084000020545A000830B58BB090
:1006F000002405940694079408940994294BDA6C15
:1007000042F00402DA64DA6C02F004020192019A07
:10071000DA6C42F08002DA64DA6C02F08002029253
:10072000029ADA6C42F00102DA64DA6C02F0010239
:100730000392039ADA6C42F00202DA64DB6C03F093
:1007400002030493049B22464FF481714FF09040C2
:1007500002F04DFD012505954FF48813069307948B
:1007600005A94FF0904002F0A9FB4FF48173059367
:1007700006950794089405A94FF0904002F09EFB5F
:1007800022462146062002F02DFE062002F03AFE07
:1007900022462146282002F025FE282002F032FEC3
:1007A0000BB030BD0010024072B6FEE700B597B046
:1007B0004422002105A803F043FF00230093019386
:1007C0000293039304934FF4007002F031FD20BBB9
:1007D000022305934FF480720892402209920F93EE
:1007E0001093012211920A2212920722139214935B
:1007F000159305A801F0F8FE88B90F230093032391
:10080000019300230293039304930421684602F0AA
:1008100029FA30B917B05DF804FBFFF7C5FFFFF701
:10082000C3FFFFF7C1FF08B501F0C4FDFFF7BEFF2E
:10083000FFF75CFF00F0CAFB00F044FCFCE700009F
:100840005A4B1B685A4981FB0321DA17C2EBE112AC
:100850004FF4FA6101FB1232002A40F092805B42B1
:10086000524A13605368524981FB0321DA17C2EBE5
:10087000E1124FF4FA6101FB1232002A40F083804A
:100880005B424A4A53609368494981FB0321DA1766
:10089000C2EBE1124FF4FA6101FB1232002A75D16A
:1008A0005B42424A9360434B1968414A82FB0132E2
:1008B000CB17C3EBE2134FF4FA6202FB1313002BC6
:1008C00066D149423B4B19605A68394880FB023077
:1008D000D317C3EBE0134FF4FA6000FB1323002B94
:1008E00058D15242334B5A609B68314880FB030C0D
:1008F000D817C0EBEC104FF4FA6C0CFB103000284A
:100900004BD15B422B488360294880FB010CC81700
:10091000C0EBEC104FF4FA6C0CFB101000283ED129
:1009200025490968494224480160214880FB02109A
:10093000D117C1EBE0114FF4FA6000FB112100293F
:100940002FD11D4A526852421B494A60184981FB07
:100950000321DA17C2EBE1124FF4FA6101FB123204
:1009600012BB154B9B685B42134A9360134B1A688A
:1009700052421A605A6852425A609A6852429A60C9
:1009800070470A236CE76FF009037AE70A2388E7C8
:10099000642197E76FF06302A4E76423B2E70321C1
:1009A000C1E76FF00202CFE70323DDE7C8000020B4
:1009B000D34D6210BC000020B0000020A400002035
:1009C00008B50121002001F09DF8002001F08CF80D
:1009D000002001F0EFF808BD38B505460C4603F0DD
:1009E00065FE4FEAE07C4FEA8C0141EA907183009A
:1009F00018186FF000424FF000034CEB0101FFF7B5
:100A00003BFEFFF7B3FD0022114BFFF72FFCFFF772
:100A1000E3FD286003F04AFEC3179A0042EA907291
:100A20008100091843EB02034FEA031C6FF00042F8
:100A3000002308014CEA1171FFF71EFEFFF796FD37
:100A40000022044BFFF712FCFFF7C6FD206038BD03
:100A500000003B4000408F4070B50446132800F270
:100A60002B8103F023FEC217A0FB043104FB02110B
:100A7000D81841EB0105C0186FF000424FF0000399
:100A800041EB0501FFF7F8FD0A30874D2B68034461
:100A90002B6003F00BFEC217A4FB003104FB021114
:100AA0008E0046EA93769800C0186FF000424FF02F
:100AB000000341EB0601FFF7DFFDC0F1FF2000F569
:100AC0007F00F6306B6803446B6003F0EFFDC217E4
:100AD000A4FB003104FB0211CE0046EA5376D80095
:100AE000C01A6FF000424FF0000366EB0101FFF700
:100AF000C3FD0A30AB680344AB6003F0D7FDC317F6
:100B0000A4FB000104FB031100186FF000424FF03A
:100B100000034941FFF7B0FD6430644D2B68034486
:100B20002B6003F0C3FDC317A4FB006104FB03119A
:100B300089006FF000420023B00041EA9671FFF790
:100B40009BFDC0F1FF2000F57F009C306B680344E3
:100B50006B6003F0ABFDC217A4FB003104FB021174
:100B6000D81841EB0102C01841EB020100186FF0E8
:100B700000424FF000034941FFF77EFD6430AB684F
:100B80000344AB6003F092FDC217A4FB003104FBE9
:100B90000211D81841EB0105C0186FF000424FF068
:100BA000000341EB0501FFF767FD0330404E33685A
:100BB0000344336003F07AFDC317A4FB005104FB28
:100BC000031189006FF000420023A80041EA9571EB
:100BD000FFF752FDC0F1FF2000F57F00FD30736884
:100BE0000344736003F062FDC217A4FB003104FBF1
:100BF00002118D0045EA93759800C0186FF000420D
:100C00004FF0000341EB0501FFF736FD0330B368F9
:100C10000344B36003F04AFDC217A4FB003104FB98
:100C20000211D81841EB0105C0186FF000424FF0D7
:100C3000000341EB0501FFF71FFD64301D4D2B68DC
:100C40001B1A2B6003F032FDC217A4FB003104FB1A
:100C500002118E0046EA93769800C0186FF00042A9
:100C60004FF0000341EB0601FFF706FD64306B68AF
:100C700003446B6003F01AFDC217A4FB003104FBB0
:100C80000211CC0044EA5374D800C01A6FF000423D
:100C90004FF0000364EB0101FFF7EEFC6430AB683A
:100CA0001B1AAB6070BD00BFC8000020BC00002054
:100CB000B0000020A400002003F0F8FCC217A0FB45
:100CC000043104FB0211D81841EB0105C0186FF084
:100CD00000424FF0000341EB0501FFF7CDFC6FF040
:100CE0000906301A864D2B6803442B6003F0DEFCA6
:100CF000C217A4FB003104FB02114FEA810C4CEA3D
:100D0000937C9800C0186FF000424FF0000341EB55
:100D10000C01FFF7B1FC0A306B6803446B6003F011
:100D2000C5FCC217A4FB003104FB02114FEAC10C41
:100D30004CEA537CD800C01A6FF000424FF0000319
:100D40006CEB0101FFF798FC361AAB683344AB60DB
:100D500003F0ACFCC317A4FB000104FB0311001853
:100D60006FF000424FF000034941FFF785FC6FF040
:100D70006306301A634D2B6803442B6003F096FC26
:100D8000C317A4FB00C104FB031189006FF00042EC
:100D900000234FEA8C0041EA9C71FFF76DFC643040
:100DA0006B6803446B6003F081FCC217A4FB003145
:100DB00004FB0211D81841EB0102C01841EB0201FB
:100DC00000186FF000424FF000034941FFF754FC58
:100DD000361AAB683344AB6003F068FCC217A4FB5F
:100DE000003104FB0211CD0045EA5375D800C01A4A
:100DF0006FF000424FF0000365EB0101FFF73CFC90
:100E00006FF00206301A404D2B6803442B6003F04C
:100E10004DFCC217A4FB003104FB02114FEAC10CC8
:100E20004CEA537CD800C0186FF000424FF000032A
:100E300041EB0C01FFF720FC03306B6803446B604F
:100E400003F034FCC217A4FB003104FB0211D818D4
:100E500041EB010CC0186FF000424FF0000341EB72
:100E60000C01FFF709FC361AAB683344AB6003F0A2
:100E70001DFCC217A4FB003104FB0211CD0045EAA2
:100E80005375D800C01A6FF000424FF0000365EBB5
:100E90000101FFF7F1FBC8301C4D2B6803442B60A8
:100EA00003F004FCC217A4FB003104FB0211D818A4
:100EB00041EB0106C0186FF000424FF0000341EB18
:100EC0000601FFF7D9FB96306B681B1A6B6003F0C5
:100ED000EDFBC217A4FB003104FB02118C0044EAB5
:100EE00093749800C0186FF000424FF0000341EB7C
:100EF0000401FFF7C1FB0A30AB680344AB60D1E6E5
:100F0000C8000020BC000020B0000020A400002089
:100F100010B582B0254B1B783BB9002000F0E9FDED
:100F2000234B1B683BB902B010BD00F035FB1F4BD3
:100F300000221A70F1E701F05FFA03F089FB6946BD
:100F400001A8FFF749FD9DED007ADFED1A7A27EE43
:100F5000277ADDED017AF2EE046A67EEA67AFDEEFD
:100F6000E77A17EE903A19B2FDEEC77A17EE900ABB
:100F700000F056FA104C2068FFF76EFD0F4A10493A
:100F8000104800F0AFF9104800F012FA236801335E
:100F90002360282B04D04FF47A7001F033FAC2E7B3
:100FA00000222260FFF74CFCF5E700BF01000020A3
:100FB000D40000200000C8429C000020B0000020A7
:100FC000BC000020C8000020A400002010B588B09C
:100FD000FFF7F6FC002000F0C3FDC3B2334A1370E4
:100FE0000021334803F004F90DF1160106A803F0BF
:100FF00079F803F03BFA642001F004FA9DF8183008
:10100000302B02D92B4B01221A702B4C23460DF1A9
:1010100019020621802003F003F8637903F0C0036E
:10102000C02B00D0FEE702F0D0FE224B1B78012B34
:1010300013D00DF11A0307AA0DF11E01012002F0D1
:10104000B9FD1E4B009307230022BDF81C10BDF80C
:101050001E0002F086FF68B1FEE70DF11A0301934E
:1010600007AB00930DF11E0307220021012002F0BF
:1010700069FDE6E701200390114B029300210191E5
:101080001023009307230A4602F028FE00B1FEE772
:1010900000F024F800B1FEE700F0B2F800B1FEE77E
:1010A0000421012002F0F6FF08B010BD000000206E
:1010B000C1160008A1000020D0040020805A0008BA
:1010C00040E2010008B5FFF723FF03F071F908BD06
:1010D000014B01221A707047A000002070B58AB041
:1010E0001B238DF81830C5238DF81930D5238DF8C2
:1010F0001A30A5238DF81B3002258DF81C500023D3
:101100008DF81D30B4228DF81E209A228DF81F20F4
:10111000E1228DF8202011228DF821204FF0010EC0
:101120008DF822E08DF823308DF824308DF82530AD
:101130008DF826308DF827302C4C0DF1180CBCE8BA
:101140000F0020606160A260E360294B00931023D0
:1011500072462146284602F059FE002840D1362327
:101160008DF81E30AC238DF81F3004268DF82660D4
:1011700014238DF826301F4D06AC0FCC2860696013
:10118000AA60EB601C4B059300230493102203928A
:10119000029601931223009308232A460221144841
:1011A000008802F078FEF0B9E0238DF8263006AC16
:1011B0000FCC28606960AA60EB60104B0593002299
:1011C00004921023039302960192009314232A465B
:1011D00002210748008802F05EFE10B1472000E0BF
:1011E00047200AB070BD4720FBE700BFF404002091
:1011F000EE040020DC040020D8040020F0040020CD
:1012000030B58BB01B238DF81830C5238DF81930FD
:10121000D5238DF81A30A5238DF81B304FF0020E20
:101220008DF81CE000238DF81D30B4228DF81E20AF
:101230009A228DF81F20E1228DF8202011228DF8AE
:1012400021208DF822E08DF823308DF824308DF8A0
:1012500025308DF826308DF827301E4C0DF1180CF6
:10126000BCE80F0020606160A260E3601A4B00934D
:10127000042301222146704602F0C8FD28BB362314
:101280008DF81E30AC238DF81F3001238DF82230ED
:101290008DF82530114D06AC0FCC28606960AA602E
:1012A000EB600F4B0593002204921023039304215B
:1012B00002910192009308232A46022106480088E1
:1012C00002F0E9FD18B90BB030BD4720FBE747201D
:1012D000F9E700BFF4040020EC040020DC04002047
:1012E000DA04002070B588B006460D46144601F0B9
:1012F00083F8C0F3C7008DF80C0001F07DF8C0F34F
:10130000C7208DF80D0073685A428DF80E20C2F385
:1013100007238DF80F3033688DF81030C3F307239F
:101320008DF81130B3685A428DF81220C2F30723AA
:101330008DF813306B688DF81430C3F307238DF8E4
:1013400015302B688DF81630C3F307238DF817304E
:10135000AB688DF81830C3F307238DF81930636834
:101360008DF81A30C3F307238DF81B3023688DF8EE
:101370001C30C3F307238DF81D30A3688DF81E3091
:10138000C3F307238DF81F3003AB0093142300220F
:10139000054909880548008802F0E3FD08B908B04E
:1013A00070BD4720FBE700BFF0040020EE040020E2
:1013B00010B584B0044601F01FF8C0F3C7008DF8E3
:1013C000080001F019F8C0F3C7208DF80900236860
:1013D0008DF80A30C3F307238DF80B3063688DF85E
:1013E0000C30C3F307238DF80D30A3688DF80E3051
:1013F000C3F307238DF80F3002AB009308230022BC
:10140000054909880548008802F0ABFD08B904B019
:1014100010BD4720FBE700BFDA040020EC040020E9
:1014200030B585B004460D4600F0E6FFC0F3C700B6
:101430008DF8080000F0E0FFC0F3C7208DF8090028
:101440008DF80A40C4F307238DF80B30C4F307432B
:101450008DF80C30240E8DF80D408DF80E50C5F32C
:1014600007258DF80F5002AB009308230022054991
:1014700009880548008802F074FD08B905B030BD40
:101480004720FBE7D8040020EE04002008B52DED2E
:10149000028B384B1B88013398420BD0364B1B888C
:1014A000013398420CD0354B188800285ED1BDEC32
:1014B000028B08BD324A33493348FFF713FFF2E786
:1014C00003F0F4F84FEAE07C4FEA8C0141EA9071B6
:1014D000830018186FF000424FF000034CEB01013D
:1014E000FFF7CAF8FFF742F80022284BFEF7BEFECE
:1014F000FFF772F808EE100A03F0D8F84FEAE07C24
:1015000003184CEB0C021B184CEB0202510141EA90
:10151000D3614FEA431E13EB0E0342EB010118188F
:101520006FF000424FF000034CEB0101FFF7A4F80D
:10153000FFF71CF80022164BFEF798FEFFF74CF859
:1015400007EE900A9FED137A67EE877AB2EE047A7F
:1015500028EE078ABDEEC88A18EE103A19B2FDEEE1
:10156000E77A17EE900AFFF75BFF9CE702F031FD88
:101570009DE700BFF0040020D8040020DA0000201E
:10158000B0000020BC000020C800002000003B404C
:1015900000408F400000C842F0B593B0364B10AE0B
:1015A00093E8030086E8030002238DF824300A2321
:1015B0008DF8253000248DF8264008278DF82770F7
:1015C00009238DF8283042238DF829306C238DF8BB
:1015D0002A3075238DF82B3065238DF82C304E235F
:1015E0008DF82D3052238DF82E3047238DF82F3073
:1015F0000D238DF83030FF238DF8313001258DF823
:10160000325080238DF833308DF83440F4238DF838
:1016100035308DF836408DF83740184B5A798DF8B3
:1016200038201A798DF83920DA788DF83A209A78AE
:101630008DF83B205A788DF83C201B788DF83D3092
:101640008DF836502146204602F069FF0694059435
:10165000049403940296019700942B464FF4F06291
:101660004FF4C861204602F0D9FA09A91A2002F005
:101670007CFB13B0F0BD00BF885A0008D0040020E6
:101680000023044A1360044A01211170034A1370B5
:10169000704700BFD400002001000020D8000020C7
:1016A000054B01221A60054B1980052300E0013B20
:1016B000002BFCD1704700BFD4000020DA000020CE
:1016C00008B50378042B06D143783E2B07D0FF2BB7
:1016D0000ED0052B00D008BDFFF7D2FFFBE7C37883
:1016E000012BF8D1B0F805100930FFF7D9FFF2E768
:1016F000B0F8032040F614439A42ECD1B0F807004A
:10170000FFF7C4FEE7E7000070B586B0164BDA6C51
:1017100042F00102DA64DB6C03F001030093009BEA
:101720004FF4005601964FF488130293002403945B
:1017300001A90E4801F0C2FB4FF48073019301250B
:1017400002950394049401A94FF0904001F0B6FB78
:10175000019602950394049401A9054801F0AEFB9B
:1017600000F0DEFA06B070BD00100240000800482C
:10177000000C004808B54FF40051084801F096FCF1
:101780004FF40051064801F091FC4FF480714FF086
:10179000904001F08BFC002008BD00BF000800480D
:1017A000000C004808B501224FF400510C4801F02C
:1017B0001EFD00224FF480714FF0904001F017FDA4
:1017C000052000F01FFE01224FF480714FF0904081
:1017D00001F00DFD052000F015FE002008BD00BF42
:1017E000000C004870B584B006460D46FF238DF806
:1017F0000F301E4B93E8030002908DF80C1000226E
:101800004FF400511A4801F0F2FC0522694602A883
:1018100000F050FA9DF80030022B09D0002401227C
:101820004FF40051124801F0E2FC204604B070BDB4
:101830009DF804209DF8033053EA022313D0AB42F5
:1018400000D81D4600240BE001220DF10E010DF120
:101850000F0000F02FFA9DF80E3033550134E4B23A
:10186000AC42F1D3DBE70024D9E700BF705A00088F
:10187000000C0048F0B585B007460E461D4B93E8B6
:10188000030002908DF80C1000F0B6FD054612E042
:101890009DF80130B34220D26FF0010401224FF4D1
:1018A0000051154801F0A3FC00F0A6FD401B0F28D5
:1018B0001AD8002C1ADA00224FF400510E4801F019
:1018C00096FC0522694602A800F0F4F99DF8003064
:1018D000022BDDD04FF0FF34E0E7324607493846AF
:1018E00000F0E8F90024D9E76FF00204204605B0C3
:1018F000F0BD00BF785A0008000C0048DC00002052
:1019000008B54FF40051044801F06AFC012814BFE7
:101910000020012008BD00BF0008004808B5FFF7FF
:10192000EFFF20B1002002F065FD0028F7D008BDD0
:1019300010B588B0114B0193114B0293114B0593D5
:10194000114B0493114B0393114B079301A802F021
:101950007BFC104C4FF0B051204601F072FD0E4A56
:101960000021204601F066FD00221146062001F00C
:1019700039FD062001F046FD08B010BD091700082A
:101980007517000875180008E5170008A517000866
:101990007D1D0008040500201D19000882B00A4BB7
:1019A0001A6E42F001021A661A6E02F001020092EB
:1019B000009A9A6D42F080529A659B6D03F08053B5
:1019C0000193019B02B070470010024010B588B02F
:1019D000154BDA6C42F00102DA64DA6C02F00102B3
:1019E0000192019A002403940494059406940794A8
:1019F000DA6C42F00102DA64DB6C03F0010302935B
:101A0000029B224620214FF0904001F0F0FB202362
:101A10000393012304930594069403A94FF0904087
:101A200001F04CFA08B010BD0010024000B589B0BA
:101A3000124BDA6C42F00402DA64DA6C02F004024F
:101A40000192019A00220392049205920692079253
:101A5000DA6C42F00402DA64DB6C03F004030293F4
:101A6000029B4FF4005303934FF40413049303A910
:101A7000034801F023FA09B05DF804FB00100240AE
:101A80000008004870B588B0164B9A6D42F40032D9
:101A90009A659A6D02F400320192019ADA6C42F072
:101AA0000102DA64DB6C03F001030293029B04235E
:101AB00003930226049600240594069407250795AF
:101AC00003A94FF0904001F0F9F90823039304961D
:101AD00005940694079503A94FF0904001F0EEF9A4
:101AE00008B070BD0010024008B5FFF76FFF00207E
:101AF00008BD08B520214FF0904001F07DFB00208B
:101B000008BD000038B505460C46FFF78FFF012CD5
:101B100001D0002038BD0F4C04EBC5040E4920460F
:101B200001F08FFC78B90D4A0021204601F082FCBB
:101B300060B900220F21282001F054FC282001F078
:101B400061FC0020E6E76FF00300E3E76FF00300BD
:101B5000E0E700BF080000200D000016791B000818
:101B600008B54FF40051034801F03AFBB0FA80F099
:101B7000400908BD0008004808B50020FFF7A8FA92
:101B800008BD000008B50A4A02604FF4E132426025
:101B900000228260C26002610C2141618261C261E7
:101BA0000262826201F039FF00B1012008BD00BF6E
:101BB00000440040012814D810B50D4B53F82020E4
:101BC0000C4C00EBC0031B01E25000EBC00004EB27
:101BD00000142046FFF756FF2046FFF7D3FF18B941
:101BE00010BD6FF0010070476FF00300F8E700BF11
:101BF000040000200C050020FEE7FEE7FEE7FEE7FC
:101C0000FEE770477047704708B500F0E9FB08BD74
:101C10007047000008B5024801F01AFC08BD00BF7B
:101C200008000020F0B589B0204B1A6E42F48052B3
:101C30001A661A6E02F480520092009ADA6C42F030
:101C40000102DA64DA6C02F001020192019ADA6CA4
:101C500042F00202DA64DB6C03F002030293029B9F
:101C60004023039302270497002605960325069533
:101C70000524079403A94FF0904001F01FF9802339
:101C80000393049705960695079403A94FF0904097
:101C900001F014F908230393049705960695079419
:101CA00003A9034801F00AF909B0F0BD0010024091
:101CB0000004004800B583B013464FF480520092F0
:101CC0000A460146044800F0DAF910B903B05DF89D
:101CD00004FB6FF00500F9E79C05002008B50F4AEA
:101CE00002604FF482724260002282604FF4E06131
:101CF000C160026142614FF4007181611821C161CC
:101D00000262426282620721C16202630822426368
:101D100000F046F900B1012008BD00BF00300140CD
:101D20000E4B0F4A1A600F4A1368591C11600BB111
:101D30000020704710B5094800F010FB08B10020E2
:101D400010BD064C2046FFF76DFF2046FFF7C6FF8B
:101D50000028F5D06FF00700F2E700BF9C050020D7
:101D600000300140DC010020034AD2F8883043F4FF
:101D70007003C2F88830704700ED00E008B500F04D
:101D80003BFB08BD2DE9F04782B005468846174663
:101D90001E4600F031FB0A9B1B1A03EB060900F0FC
:101DA0002BFB8246284B1B68C3F3CB3309FB03F3A1
:101DB00001932B689C6838EA04040CBF01230023BC
:101DC000BB423DD0B6F1FF3FF3D000F015FBA0EBD6
:101DD0000A00484507D2019A02B14A46019B013BDD
:101DE00001939146E5E72A68536823F0E0035360C6
:101DF0006B68B3F5827F0BD0AB6AB3F5005F14D08C
:101E0000012385F85D30002385F85C30032018E05D
:101E1000AB68B3F5004F02D0B3F5806FECD12A6800
:101E2000136823F040031360E6E72A68136823F47D
:101E3000005313602A68136843F400531360DFE70C
:101E4000002002B0BDE8F087100000202DE9F04727
:101E500082B006460C4615461F4600238DF8033017
:101E600000F0CAFA0A9B1B1A03EB070800F0C4FA39
:101E70008146D6F800A0304B1B6803EB8303C3EB0D
:101E8000C3031B0D08FB03F3019302E0B7F1FF3F0F
:101E900012D133689B6803EA040CAC4547D0B4F513
:101EA000C06FF3D1002DF1D19AF80C30DBB28DF870
:101EB00003309DF80330E9E700F09EFAA0EB09003B
:101EC000404507D2019A02B14246019B013B019372
:101ED0009046DEE73268536823F0E003536073688E
:101EE000B3F5827F0BD0B36AB3F5005F14D0012342
:101EF00086F85D30002386F85C30032018E0B36874
:101F0000B3F5004F02D0B3F5806FECD1326813689F
:101F100023F040031360E6E73268136823F40053AC
:101F200013603268136843F400531360DFE7002046
:101F300002B0BDE8F08700BF1000002070B582B08D
:101F400004460D46164600920B4600224FF4C0513F
:101F5000FFF77CFFB0B900962B4600228021204677
:101F6000FFF710FFA8B900962B4600224FF4C0617E
:101F70002046FFF76BFF50B1236E43F0200323662A
:101F8000032004E0236E43F020032366032002B005
:101F900070BD236E43F0200323660320F7E77047EC
:101FA00000286AD010B50446436A33B94368B3F5D4
:101FB000827F05D00023C36102E0002303614361F7
:101FC0000023A36294F85D30002B4DD0022384F8E7
:101FD0005D302268136823F040031360E368B3F5B3
:101FE000E06F47D90022B3F5706F04D0B3F5E06F0E
:101FF00001D00023A362636803F48273A16801F433
:1020000004410B43216901F002010B43616901F0B6
:1020100001010B43A16901F400710B43E16901F077
:1020200038010B43216A01F080010B43A16A01F4DE
:10203000005120680B430360638B03F00403616A63
:1020400001F010010B43616B01F008010B43E168E3
:1020500001F470610B4321681A434A600020206636
:10206000012384F85D3010BD84F85C302046FFF712
:1020700096FFABE74FF48052B5E7012070472DE99A
:10208000F8431F46089D90F85C30012B00F06481F6
:10209000044688469146012380F85C3000F0ACF994
:1020A000064694F85D30DBB26268012B0AD0B2F5C7
:1020B000827F40F03881A268002A40F03D81042BE5
:1020C00040F03C81B8F1000F00F03A81B9F1000F07
:1020D00000F03881002F00F0378194F85D30DBB2DA
:1020E000042B02D0052384F85D3000232366C4F856
:1020F0004090A4F84670A4F84470C4F83880E7878C
:10210000A787E3642365E368B3F5E06F01D8012F87
:1021100023D92268536823F48053536023681A68D4
:1021200012F0400F03D11A6842F040021A60E368CF
:10213000B3F5E06F58D963680BB1012F0BD1A26BD7
:1021400023681288DA60A36B0233A363E38F9BB228
:10215000013B9BB2E387012731E02268536843F4D7
:1021600080535360DAE7A26B1288DA60A36B023304
:10217000A363E38F9BB2013B9BB2E38700272368F5
:102180009A6812F0010F11D0B4F8462092B26AB1E9
:10219000DA68236C1A80236C02332364B4F8463067
:1021A0009BB2013B9BB2A4F84630012700F024F912
:1021B000831BAB4203D3B5F1FF3F40F0C780E38FF1
:1021C0009BB22BB9B4F846309BB2002B00F0A18033
:1021D00023689A6812F0020FD1D0E28F92B2002ADF
:1021E000CDD0002FCBD0BEE763680BB1012F0FD14C
:1021F000E38F9BB2012B0DD9A26B23681288DA60A2
:10220000A36B0233A363E38F9BB2023B9BB2E387D2
:10221000012749E0A26B236812781A73A36B01337C
:10222000A363E38F9BB2013B9BB2E387F0E7E28FAE
:1022300092B2012A0CD9A26B1288DA60A36B023326
:10224000A363E38F9BB2023B9BB2E38700273DE091
:10225000A26B12781A73A36B0133A363E38F9BB253
:10226000013B9BB2E387002730E02268536843F4C8
:102270008053536001270DE0226C1B7B1370236C8D
:1022800001332364B4F846309BB2013B9BB2A4F8FF
:102290004630012700F0B0F8801BA84202D3B5F108
:1022A000FF3F55D1002D55D0E38F9BB223B9B4F831
:1022B00046309BB2002B2CD023689A6812F0020F94
:1022C00004D0E28F92B20AB1002FB0D123689A688D
:1022D00012F0010FDED0B4F8462092B2002AD9D015
:1022E000B4F8462092B2012AC6D9DA68236C1A8063
:1022F000236C02332364B4F846309BB2023B9BB29A
:10230000A4F84630B4F846309BB2012BADD9012772
:10231000C0E7324629462046FFF710FE20B12023B1
:102320002366012000E00220012384F85D300023B1
:1023300084F85C30BDE8F8830220F5E70220F3E77B
:102340000120F1E70120EFE70120EDE70320EBE7B3
:102350000320E9E70320E7E70220EBE790F85D00C0
:1023600070470000104B1B780BB90120704710B567
:1023700004464FF47A70B0FBF3F30C4A1068B0FBDC
:10238000F3F001F043F868B90F2C01D901200AE0FD
:10239000002221464FF0FF3001F024F8044B1C606E
:1023A000002000E0012010BD1400002010000020DB
:1023B0001800002010B5094A136843F480731360B5
:1023C000032000F0FDFF0020FFF7CCFF10B1012437
:1023D000204610BD0446FFF7E1FAF9E7002002406D
:1023E000034B1B78034A11680B441360704700BF0E
:1023F0001400002000060020014B1868704700BF41
:102400000006002038B50446FFF7F6FF0546B4F194
:10241000FF3F02D0044B1B781C44FFF7EDFF401B2D
:10242000A042FAD338BD00BF140000201A4BDB686D
:1024300003F00303022B2BD0032B2BD0012B14D042
:102440000021154AD368C3F303130133D068C0F3E6
:10245000062001FB00F0B0FBF3F0D368C3F3416347
:1024600001335B00B0FBF3F070470B4B1B6813F0BC
:10247000080F08D1084BD3F89430C3F30323074A5D
:1024800052F82310DDE7044B1B68C3F30313F6E790
:102490000349D6E70349D4E700100240945A0008E4
:1024A0000024F40000127A0030B583B004461F4BBC
:1024B0009B6D13F0805F0AD000F0A8FEB0F5007F9E
:1024C00016D07F2C1ED8702C2BD000211BE0174D6E
:1024D000AB6D43F08053AB65AB6D03F0805301935C
:1024E000019B00F093FEAB6D23F08053AB65E5E7F5
:1024F000802C03D9A02C03D9022104E0002102E0A2
:10250000012100E002210A4A136823F00F030B4364
:102510001360136803F00F038B4204D1002003B053
:1025200030BD0121EFE70120F9E700BF00100240B4
:1025300000200240284A9368D26802F0030213F098
:102540000C030AD00C2B06D0042B1FD0082B20D054
:102550000020024610E0012AF6D11F4A126812F04C
:10256000080F0CD11C4AD2F89420C2F303221B4955
:1025700051F8222043B100200C2B0DD07047164A91
:102580001268C2F30312F2E71046F5E7144800227E
:10259000F2E714480022EFE70F4BDB6803F0030378
:1025A000022B16D0032B00D10E4A0B49CB68C3F384
:1025B00003130133C868C0F3062002FB00F0B0FB30
:1025C000F3F0CB68C3F3416301335B00B0FBF3F07E
:1025D000D4E7034AE9E700BF00100240945A00081C
:1025E0000024F40000127A00002800F02283F0B5E5
:1025F00083B00446964B9D6805F00C05DE6806F036
:102600000306036813F0100F5AD0E5B10C2D18D053
:10261000A369002B00F0BB808D4A136843F00103CF
:102620001360FFF7E9FE0746894B1B6813F0020FA2
:1026300040F09A80FFF7E0FEC01B0228F4D9032087
:1026400002E3012EE4D1824B1B6813F0020F03D08A
:10265000A369002B00F0EF82206A7D4B1B6813F00A
:10266000080F5BD07A4B1B6803F0F00398425CD8EC
:10267000774B1A6842F008021A601A6822F0F002DA
:10268000216A0A431A605A6822F47F42E16942EAE9
:1026900001225A60002D60D0FFF74CFF6C4B9B6805
:1026A000C3F303136B4AD35C03F01F03D8406A4B98
:1026B00018606A4B1868FFF755FE002840F0C48286
:1026C000236813F0010F00F08180082D75D00C2DC8
:1026D00071D06368B3F5803F00F09780B3F5A02F09
:1026E00000F099805A4B1A6822F480321A601A68F6
:1026F00022F480221A606368002B00F09980FFF7B3
:102700007BFE0746524B1B6813F4003F5ED1FFF778
:1027100073FEC01B6428F5D9032095E24C4BD3F817
:1027200094301B0903F0F003A0E7FFF7BDFE00287B
:1027300040F08382464B1A6842F008021A601A6819
:1027400022F0F002216A0A431A605A6822F47F429A
:10275000E16942EA01225A609EE7206AFFF7A4FE7F
:10276000002899D001206FE2394B1A6842F0080224
:102770001A601A6822F0F002216A0A431A605A6845
:1027800022F47F42E16942EA01225A6098E7304A26
:10279000136823F001031360FFF72EFE07462C4B4E
:1027A0001B6813F0020F8BD0FFF726FEC01B022818
:1027B000F5D9032048E2032E8BD1254B1B6813F477
:1027C000003F03D06368002B00F03982236813F0C8
:1027D000020F58D0042D45D00C2D41D0E368002BBA
:1027E00077D01B4A136843F480731360FFF704FE2D
:1027F0000646174B1B6813F4806F61D1FFF7FCFD91
:10280000801B0228F5D903201EE2114A136843F405
:10281000803313606FE703F18043A3F53C331A68FC
:1028200042F480221A601A6842F480321A6062E729
:10283000FFF7E2FD0746064B1B6813F4003FC5D0C7
:10284000FFF7DAFDC01B6428F5D90320FCE100BFC7
:1028500000100240CC5A0008100000201800002090
:10286000022EBBD1A74B1B6813F4806F03D0E36823
:10287000002B00F0E681A34A536823F0FE43216950
:1028800043EA01635360236813F0080F4CD0636977
:102890009BB39C4AD2F8943043F00103C2F89430C1
:1028A000FFF7AAFD0646974BD3F8943013F0020FBA
:1028B0003AD1FFF7A1FD801B0228F4D90320C3E120
:1028C000904A536823F0FE43216943EA0163536051
:1028D000D9E78C4A136823F480731360FFF78CFDEB
:1028E0000646884B1B6813F4806FCCD0FFF784FD3D
:1028F000801B0228F5D90320A6E1824AD2F8943041
:1029000023F00103C2F89430FFF776FD06467D4BB5
:10291000D3F8943013F0020F06D0FFF76DFD801B43
:102920000228F4D903208FE1236813F0040F7AD032
:10293000744B9B6D13F0805F36D1724B9A6D42F0F1
:1029400080529A659B6D03F080530193019B012691
:102950006D4B1B6813F4807F28D0A368012B39D0FE
:10296000052B3FD0674BD3F8902022F00102C3F82B
:102970009020D3F8902022F00402C3F89020A3689E
:10298000002B3DD0FFF738FD07465E4BD3F8903063
:1029900013F0020F46D1FFF72FFDC01B41F2883321
:1029A0009842F2D903204FE10026D1E7564A136836
:1029B00043F480731360FFF71FFD0746524B1B68FB
:1029C00013F4807FC9D1FFF717FDC01B0228F5D98A
:1029D000032039E14B4AD2F8903043F00103C2F8AA
:1029E0009030CCE7474BD3F8902042F00402C3F874
:1029F0009020D3F8902042F00102C3F89020BEE767
:102A0000FFF7FAFC07463F4BD3F8903013F0020F64
:102A100008D0FFF7F1FCC01B41F288339842F2D98D
:102A2000032011E1E6B9236813F0200F35D0636A63
:102A3000E3B1344AD2F8983043F00103C2F8983039
:102A4000FFF7DAFC06462F4BD3F8983013F0020F4D
:102A500023D1FFF7D1FC801B0228F4D90320F3E037
:102A6000284A936D23F080539365DCE7254AD2F81A
:102A7000983023F00103C2F89830FFF7BDFC0646FA
:102A8000204BD3F8983013F0020F06D0FFF7B4FCB8
:102A9000801B0228F4D90320D6E0A36A002B00F0A3
:102AA000D280022B17D00C2D00F0D480154A136869
:102AB00023F080731360FFF79FFC0446114B1B68E3
:102AC00013F0007F00F0AE80FFF796FC001B022899
:102AD000F4D90320B8E00B4BDB6803F00301E26A92
:102AE000914213D00C2D00F0B180064B1B6813F0FF
:102AF000806F40F0AD80034B1B6813F0805F2FD0D8
:102B00000120A1E0001002400070004003F0F0023C
:102B1000216B0139B2EB011FE4D103F4FE42616B7A
:102B2000B2EB012FDED103F07842A16BB2EBC16FA3
:102B3000D8D103F4C001E26B5208013AB1EB425F15
:102B4000D0D103F0C063226C5208013AB3EB426F5C
:102B5000C8D1414B1B6813F0007F49D0002073E0BF
:102B60003D4A136823F080731360FFF745FC054668
:102B7000394B1B6813F0007F06D0FFF73DFC401B6C
:102B80000228F5D903205FE0334AD368334919405E
:102B9000E36A206B013843EA0013606B43EA0023C9
:102BA000E06B4008013843EA4053206C400801388C
:102BB00043EA4063A06B43EAC0631943D1601368E2
:102BC00043F080731360D36843F08073D360FFF7E2
:102BD00013FC0446204B1B6813F0007F06D1FFF75F
:102BE0000BFC001B0228F5D903202DE000202BE070
:102BF000194B1A6842F080721A60DA6842F08072EB
:102C0000DA60FFF7F9FB0446134B1B6813F0007FF3
:102C100006D1FFF7F1FB031B022BF5D9032013E0CC
:102C2000002011E00C4AD1680D4B0B40D36000200E
:102C30000AE001207047012006E0012004E00120A5
:102C400002E0012000E0002003B0F0BD0120FBE71E
:102C50000120F9E70120F7E7001002400C809D01F8
:102C6000FCFFEEFE002800F0EA80F8B50D460446B1
:102C7000774B1B6803F00F038B420BD2744A136827
:102C800023F00F030B431360136803F00F038B4211
:102C900040F0D780236813F0020F0CD0A2686D4B70
:102CA0009B6803F0F0039A4205D96A498B6823F0C8
:102CB000F0031A438A60236813F0010F6ED0636833
:102CC000032B0DD0022B25D0002B3CD103F18043E8
:102CD00003F504331B6813F0020F21D10120A7E094
:102CE0005C4B1B6813F0007F01D10120A0E0FFF7CF
:102CF0009DFB594B98422DD9564B9B6813F0F00F12
:102D00002AD1544A936823F0F00343F08003936080
:102D1000802724E04F4B1B6813F4003F00F09380A2
:102D2000FFF708FC4C4B984218D94A4B9B6813F0AC
:102D3000F00F2FD1474A936823F0F00343F080034C
:102D4000936080270BE0434B1B6813F4806FE7D13F
:102D500001206DE0002702E0002700E000273D4A47
:102D6000936823F0030361680B439360FFF744FB10
:102D70000646384B9B6803F00C036268B3EB820F86
:102D80000AD0FFF739FB801B41F288339842F0D913
:102D900003204DE00027E2E7002F4AD1236813F01B
:102DA000020F0CD0A2682B4B9B6803F0F0039A42F1
:102DB00005D228498B6823F0F0031A438A60244B1C
:102DC0001B6803F00F03AB420AD9214A136823F0B2
:102DD0000F032B431360136803F00F03AB4234D18E
:102DE000236813F0040F06D01A4A936823F4E063B3
:102DF000E1680B439360236813F0080F07D0154A6E
:102E0000936823F46053216943EAC1039360FFF799
:102E100091FB104B9B68C3F30313104AD35C03F080
:102E20001F03D8400E4B18600E4B1868FFF79AFA34
:102E3000F8BD084A936823F0F0039360AEE70120E1
:102E400070470120F4E70120F2E70120F0E700BF1E
:102E5000002002400010024000B4C404CC5A000814
:102E60001000002018000020014B1868704700BFB8
:102E70001000002008B5FFF7F7FF054B9B68C3F370
:102E80000223044AD35C03F01F03D84008BD00BFEF
:102E900000100240C45A000808B5FFF7E5FF054BD3
:102EA0009B68C3F3C223044AD35C03F01F03D840DA
:102EB00008BD00BF00100240C45A0008F0B583B03E
:102EC000002362E085685E000324B44025EA04051F
:102ED000CC68B4402C438460456825EA0C054C68F6
:102EE000C4F300149C402C43446060E0DD080835C6
:102EF00050F8254003F0070C4FEA8C0C4FF00F0EF2
:102F00000EFA0CFE24EA0E0E0C6904FA0CF444EAE4
:102F10000E0440F8254061E0072400E0002404FA94
:102F20000EF42C430CF1020C5C4D45F82C405C4C2B
:102F3000A568D44325EA02064F6817F4801F01D024
:102F400042EA0506564DAE60ED6804EA05064F6894
:102F500017F4001F01D042EA0506514DEE606D687E
:102F600004EA05064F6817F4003F01D042EA05065F
:102F70004B4D6E602D682C404E6816F4803F01D09A
:102F800042EA0504464A146001330A6832FA03F43F
:102F900000F081804FF0010C0CFA03FC1CEA0202E5
:102FA000F2D04C6804F00304013C012C8AD94C682F
:102FB00004F00304032C0CD0C4685D004FF0030C34
:102FC0000CFA05FC24EA0C0C8C68AC4044EA0C04B6
:102FD000C4604C6804F00304022C87D004684FEAF4
:102FE000430E4FF0030C0CFA0EFC24EA0C0C4C6858
:102FF00004F0030404FA0EF444EA0C0404604C6880
:1030000014F4403FC0D0274C256E45F001052566DD
:10301000246E04F001040194019C4FEA930C0CF11E
:1030200002051E4C54F8255003F0030E4FEA8E0E95
:103030000F2404FA0EF425EA0405B0F1904F3FF492
:103040006DAF194CA0421AD004F58064A04218D08C
:1030500004F58064A04216D004F58064A04214D028
:1030600004F58064A04212D004F58064A04210D020
:1030700004F58064A0423FF44FAF08244FE70124D9
:103080004DE702244BE7032449E7042447E70524DE
:1030900045E7062443E703B0F0BD00BF0000014050
:1030A000000401400010024000040048002331FAEF
:1030B00003F200F08D80F0B52EE0072500E000253A
:1030C00005FA0CF5A54267D004685D004FF0030CCB
:1030D0000CFA05FC44EA0C0404604FEAD30E0EF12E
:1030E000080E50F82E4003F00706B6000F25B54035
:1030F00024EA050440F82E40846824EA0C04846025
:10310000446824EA02024260C26822EA0C02C260F9
:10311000013331FA03F25AD001229A4012EA010730
:10312000F6D04FEA930E0EF102052A4C54F82540D2
:1031300003F0030C4FEA8C0C0F2505FA0CF6344013
:10314000B0F1904FBBD0244DA84219D005F5806551
:10315000A84217D005F58065A84215D005F5806511
:10316000A84213D005F58065A84211D005F5806509
:10317000A8420FD005F58065A8429ED008259FE79C
:1031800001259DE702259BE7032599E7042597E79D
:10319000052595E7062593E7104C256825EA0705E0
:1031A0002560656825EA07056560E56825EA070585
:1031B000E560A56825EA0705A560064F0EF1020443
:1031C00057F8245025EA060547F824507CE7F0BD5F
:1031D000704700BF000001400004004800040140A7
:1031E0000369194201D001207047002070470AB1DD
:1031F0008161704781627047436901EA030221EAF5
:10320000030141EA0241816170470000074B1868E1
:1032100000F4C060B0F5806F04D0D3F8800010F4E3
:10322000807000D170474FF40070FBE700700040E1
:10323000002836D13E4B1B6803F4C063B3F5806FA2
:1032400008D03B4AD2F8803023F48073C2F8803033
:1032500000207047364AD2F8803023F48073C2F8D9
:103260008030136823F4C06343F400731360314B60
:103270001B68322202FB03F32F4AA2FB03239B0CA1
:10328000013300E0013B2A4A526912F4806F01D0F9
:10329000002BF7D1264B5B6913F4806F44D10020DB
:1032A0007047B0F5007F08D0214A136823F4C0634B
:1032B00043F480631360002070471D4B1B6803F4C8
:1032C000C063B3F5806F08D0194AD2F8803043F458
:1032D0008073C2F8803000207047154AD2F88030E1
:1032E00043F48073C2F88030136823F4C06343F45E
:1032F000007313600F4B1B68322202FB03F30E4A6C
:10330000A2FB03239B0C013300E0013B084A5269F6
:1033100012F4806F01D0002BF7D1054B5B6913F4D9
:10332000806F03D10020704703207047032070474F
:10333000007000401000002083DE1B43002807DBE4
:1033400000F01F02400901239340024A42F8203056
:10335000704700BF00E100E0002808DB0901C9B2A6
:1033600000F1604000F5614080F80013704700F004
:103370000F000901C9B2014B1954704714ED00E068
:1033800000B500F00700C0F1070CBCF1040F28BF26
:103390004FF0040C031D062B0FD9C31E4FF0FF3E48
:1033A0000EFA0CF021EA000199400EFA03FE22EA1F
:1033B0000E0241EA02005DF804FB0023EEE7000084
:1033C000074AD36823F4E0631B041B0C000200F4DB
:1033D000E060034343F0BF6343F40033D3607047BE
:1033E00000ED00E010B50446054BD868C0F302209C
:1033F000FFF7C6FF01462046FFF7AEFF10BD00BF36
:1034000000ED00E008B5FFF799FF08BD0138B0F105
:10341000807F0BD24FF0E0235861054AF02182F8FB
:1034200023100020986107221A617047012070471D
:1034300000ED00E00346084609B95A6070470120D4
:10344000704710B1016000207047012070470000F4
:1034500010B50368C3F3004203F01F030121994034
:103460005301044A9C580C4203D09950436803B15D
:10347000984710BD140401407047000070B5044621
:10348000016883680269134342691343C2691343A5
:103490000868964A02401A430A602268536823F477
:1034A0004053E1680B435360A1692268904B9A42F4
:1034B00001D0236A1943936823F06E4323F43063E9
:1034C0000B4393602268D36A23F00F03616A0B43B6
:1034D000D3622368874A934210D0874A934221D00F
:1034E000864A934237D0864A93425CD0854A9342BB
:1034F0006BD07F4A93427DD010223AE002F55842C9
:10350000D2F8882002F00302032A09D8DFE802F08B
:103510000204870601222CE004222AE0082228E087
:10352000102226E002F5E632D2F8882002F00C02E2
:103530000C2A0ED8DFE802F0070D0D0D090D0D0D58
:10354000750D0D0D0B00002213E0042211E008227E
:103550000FE010220DE002F5E432D2F8882002F0EC
:103560003002202A5FD01AD8002A5ED0102A5ED1FD
:1035700004225F498B4276D0E069B0F5004F00F03D
:10358000C980082A00F23481DFE812F0F70019013F
:10359000F50032011C013201320132011F01302AD3
:1035A00047D10822E5E702F5E232D2F8882002F09E
:1035B000C002802A3FD004D8FAB3402A3FD1042267
:1035C000D7E7C02A3DD10822D3E702F5E032D2F88E
:1035D000882002F44072B2F5007F34D005D8A2B33F
:1035E000B2F5807F33D10422C3E7B2F5407F30D1FA
:1035F0000822BEE702F5C832D2F8882002F4406201
:10360000B2F5006F27D005D83AB3B2F5806F26D156
:103610000422AEE7B2F5406F23D10822A9E70222C7
:10362000A7E70222A5E70222A3E70022A1E71022D2
:103630009FE710229DE702229BE7002299E71022D4
:1036400097E7102295E7022293E7002291E71022E4
:103650008FE710228DE702228BE7002289E71022F4
:1036600087E7102285E7082A00F2B280DFE802F03F
:1036700008B03BB038B0B0B005004FF4004004E0F3
:10368000FFF7F8FB002800F0A580626A1E4B33F8B4
:103690001220B0FBF2F3656805EB4501994200F298
:1036A0009B80B3EB053F00F29980002633463146FC
:1036B000FCF7E2FF090241EA106100026B08C01842
:1036C0002A46334641F10001FCF7D6FFA0F54072CF
:1036D0000E4B9A4200F284802368D860304665E041
:1036E000FEF728FFCEE70A48CFE700BFF369FFCF18
:1036F0000080004000380140004400400048004085
:10370000004C004000500040DC5A0008FFFC0F0055
:103710000024F400082A65D8DFE802F007270564D2
:103720002A6464640B00354803E0FFF7A3FB00281C
:103730005AD0626A324B33F81230B0FBF3F0626851
:10374000530803EB4003B3FBF2F3A3F110014FF670
:10375000EF7291424AD89AB222F00F02C3F34203A9
:1037600013432268D360002020E0FFF795FBDEE7DB
:10377000FEF7E0FEDBE7214803E0FFF77BFB0028D4
:1037800038D0626A1E4B33F81230B0FBF3F0636836
:1037900000EB5300B0FBF3F0A0F110024FF6EF7313
:1037A0009A4229D8236880B2D86000200123A4F867
:1037B0006A30A4F8683000232367636770BDFFF7A1
:1037C0006BFBDCE7FEF7B6FED9E74FF40040D8E725
:1037D0000120EBE70020E9E70120E7E70120E5E72A
:1037E0000120E3E70120E1E70020DFE70120DDE73A
:1037F0000120DBE70020D9E70120D7E70024F4000F
:10380000DC5A0008836A13F0010F06D0026853687F
:1038100023F40033C16A0B435360836A13F0020F31
:1038200006D00268536823F48033016B0B43536066
:10383000836A13F0040F06D00268536823F48023D0
:10384000416B0B435360836A13F0080F06D0026884
:10385000536823F40043816B0B435360836A13F076
:10386000100F06D00268936823F48053C16B0B439A
:103870009360836A13F0200F06D00268936823F4E4
:103880000053016C0B439360836A13F0400F0AD01E
:103890000268536823F48013416C0B435360436CFC
:1038A000B3F5801F0BD0836A13F0800F06D0026837
:1038B000536823F40023C16C0B43536070470268C4
:1038C000536823F4C003816C0B435360EBE72DE98D
:1038D000F84305460F4616469946DDF820802B68CA
:1038E000DC6937EA04040CBF01240024B44257D138
:1038F000B8F1FF3FF3D0FEF77FFDA0EB0900404594
:103900002FD8B8F1000F2CD02B681A6812F0040FD2
:10391000E5D0DA6912F4006FE1D04FF400621A6268
:103920002A6852E8003F23F4D07342E800310029AE
:10393000F6D12A6802F1080353E8003F23F001039F
:10394000083242E800310029F3D12023C5F8843041
:10395000C5F88830C5F88C30002385F88030032006
:103960001FE02A6852E8003F23F4D07342E8003198
:103970000029F6D12A6802F1080353E8003F23F03A
:103980000103083242E800310029F3D12023C5F8B1
:103990008430C5F88830002385F88030032000E0AB
:1039A0000020BDE8F88330B583B004460023C0F89A
:1039B0008C30FEF721FD05462268126812F0080FD0
:1039C0000FD123681B6813F0040F18D12023C4F80B
:1039D0008430C4F888300020E06684F8800003B0AA
:1039E00030BD6FF07E430093034600224FF4001178
:1039F0002046FFF76CFF0028E3D00320EFE76FF0CD
:103A00007E4300932B4600224FF480012046FFF7AF
:103A10005EFF0028DAD00320E1E778B310B5044652
:103A2000D0F884300BB32423C4F8843022681368A0
:103A300023F0010313602046FFF720FD012813D077
:103A4000A36ABBB92268536823F490435360226889
:103A5000936823F02A0393602268136843F00103FC
:103A600013602046FFF79FFF10BD80F88030FFF7FE
:103A700003FDD8E72046FFF7C5FEE3E701207047C6
:103A8000006040607047EFF3108372B602688242B4
:103A900003D0002083F3108870470120FAE7EFF38A
:103AA000108372B602680A60486001600A6851605B
:103AB00083F310887047EFF3108372B60860426892
:103AC0004A6041604A68116083F310887047EFF3E1
:103AD000108272B6416803680B604168596082F3D6
:103AE0001088704738B50C46EFF3108572B6006841
:103AF0000860FFF7ECFF2268002313602268536020
:103B000085F3108838BD38B50C46EFF3108572B6D2
:103B100040680860FFF7DBFF22680023136022681B
:103B2000536085F3108838BD0246EFF3108172B6FA
:103B30000368002001E001301B689342FBD181F350
:103B40001088704710B58AB01C468DF80C008DF8AF
:103B50000D108DF80E2000210191CDF80710049171
:103B6000059106910791089109913F23ADF8103016
:103B70008A23ADF8123003AB06930323079301ABFE
:103B800008930723099304A800F06CFB00280FDBBF
:103B90009DF8040050B9BDF805302380BDF807201A
:103BA0000C9B1A80BDF809200D9B1A800AB010BD2D
:103BB000FF20FBE770B58AB00E4615461C468DF80F
:103BC0000C0000210191CDF8071004910591069198
:103BD0000791089109913F23ADF810308A23ADF881
:103BE000123003AB06930123079301AB089307231D
:103BF000099304A800F036FB00280DDB9DF80400B3
:103C000040B9BDF805303380BDF807302B80BDF8D2
:103C1000093023800AB070BDFF20FBE770B592B079
:103C20009DF85C509DF864402E190E36282E51D810
:103C30008DF80400ADF80510ADF807208DF80930B7
:103C40009DF858308DF80A308DF80B5001AE2A4699
:103C5000189903A800F0E6FC05F1080312AA52FA2D
:103C600083F303F8444C0935EDB222461A997019D2
:103C700000F0D8FC2C44E4B204F148036B44BDF8D6
:103C80006C2023F8442CA31C12AA52FA83F3BDF82B
:103C9000702023F8442C0434E4B200210C910D91DF
:103CA0000E910F91109111913F23ADF83030832385
:103CB000ADF832300E960F940DF12F0310930123BF
:103CC00011930CA800F0CEFA002805DB9DF82F0018
:103CD00012B070BD4220FBE7FF20F9E700B58FB0BE
:103CE0008DF804008DF8051061B1D2F800C050685D
:103CF0009168D268CDF806C0CDF80A00CDF80E1054
:103D0000CDF812208DF816309DF840308DF8173020
:103D10009DF844308DF81830129BCDF819309DF87D
:103D20004C308DF81D300021089109910A910B91BA
:103D30000C910D913F23ADF820308623ADF8223051
:103D400001AB0A931A230B930DF103030C93012388
:103D50000D9308A800F086FA002804DB9DF8030004
:103D60000FB05DF804FBFF20FAE71F2829D810B533
:103D700090B004468DF8040002460DF1050000F0F5
:103D800051FC0134E4B200210A910B910C910D9188
:103D90000E910F913F23ADF828308E23ADF82A30D5
:103DA00001AB0C930D940DF127030E9301230F9398
:103DB0000AA800F057FA002805DB9DF8270010B08C
:103DC00010BD42207047FF20F9E700B589B00021FF
:103DD0000291039104910591069107913F23ADF85B
:103DE000083040F20113ADF80A300DF107030693D5
:103DF0000123079302A800F035FA002804DB9DF8A0
:103E0000070009B05DF804FBFF20FAE770B58CB03D
:103E100016461D468DF80000012838D01024224691
:103E20000DF1010000F0FEFB04F131036B4403F8D7
:103E3000306C04F132030DEB030202F8305C033402
:103E400005AB0021ADF814108DF8161006910791FE
:103E5000089109910A910B913F22ADF818204FF477
:103E60008172ADF81A20CDF820D009940A9303236B
:103E70000B9306A800F0F6F900280ADB9DF8140061
:103E800018B9BDF81520109B1A800CB070BD022423
:103E9000C5E7FF20F9E730B58FB00C4611461D4647
:103EA000ADF800008DF80240012C56D010242246B7
:103EB0000DF1030000F0B6FB04F13B030DEB030230
:103EC00002F8385C04F13C036B449DF8482003F889
:103ED000382C04F13D036B449DF84C2003F8382C3A
:103EE00004F13E036B449DF8502003F8382C04F194
:103EF0003F036B449DF8542003F8382C04F1400331
:103F00006B449DF8582003F8382C093407AB002186
:103F1000ADF81C108DF81E10089109910A910B91B3
:103F20000C910D913F22ADF820204FF48272ADF834
:103F30002220CDF828D00B940C9303230D9308A8CE
:103F400000F090F900280ADB9DF81C0018B9BDF8B4
:103F50001D20179B1A800FB030BD0224A7E7FF2059
:103F6000F9E77A2B31D810B5A8B01C46ADF804009B
:103F7000ADF806108DF808208DF809301A462A99F8
:103F80000DF10A0000F04EFB0634E4B2002122914C
:103F9000239124912591269127913F23ADF88830D4
:103FA0004FF48373ADF88A3001AB249325940DF15F
:103FB000870326930123279322A800F053F90028B2
:103FC00005DB9DF8870028B010BD42207047FF2018
:103FD000F9E700B589B0ADF8040000210291039122
:103FE00004910591069107913F23ADF8083040F206
:103FF0002713ADF80A3001AB0493022305930DF1AA
:10400000030306930123079302A800F02BF900286D
:1040100004DB9DF8030009B05DF804FBFF20FAE71C
:10402000F0B5A9B00C4616461D468DF88400002157
:104030002291239124912591269127913F23ADF838
:1040400088300D23ADF88A3021AB249301232593CA
:1040500001AB26938023279322A800F003F90028C0
:1040600016DB9DF8047077B9279B03F1FF3C5FFADC
:104070008CFC86F800C0A44508D922460DF1050144
:10408000284600F0CFFA384629B0F0BD6246F5E781
:10409000FF27F8E700B589B08DF804008DF805100A
:1040A00000210291039104910591069107913F230C
:1040B000ADF808300F23ADF80A3001AB04930223AA
:1040C00005930DF1030306930123079302A800F063
:1040D000C9F8002804DB9DF8030009B05DF804FB73
:1040E000FF20FAE730B585B005460C4602AB0093D9
:1040F0000DF10A030DF10E0203A90DF10F0000F0FE
:10410000D4F910F0FF0012D1BDF80C301A0A2A7051
:104110001B029BB22380BDF808100A09120102F0AD
:10412000F0021343238001F00F010B43238005B0FD
:1041300030BD037A042B07D1827A90F88830033B94
:104140009A4203D100207047012070470220704737
:1041500010B5A2B01446C1F3090C4CEA802CADF89E
:1041600004C08DF8062001218DF80810BDF8040068
:10417000D1B2ADF809008DF80B10194603A800F074
:1041800051FA044B1B6913B1211D02A8984722B0B4
:1041900010BD00BFE001002000B583B007E001A919
:1041A0000748FFF79FFC01990648FFF784FC054884
:1041B000FFF7BAFC0128F2DD03B05DF804FB00BF95
:1041C0000C0600200406002030B583B005460C46DE
:1041D00007E001A92046FFF796FC01992846FFF762
:1041E0005EFC2046FFF74FFC0028F2D003B030BD44
:1041F00010B508B1104AD0611048FFF741FC1048D3
:10420000FFF73EFCFDF794FB002408E08C210D4BEA
:1042100001FB04310948FFF74EFC0134E4B2042CE1
:10422000F4D9054B1B680BB100209847024B9B68E3
:1042300003B1984710BD00BFE00100200406002034
:104240000C060020000200200268054B1A60C268BC
:10425000DA6002691A6182699A6182689A607047BD
:10426000E001002070B584B005460C464388028802
:10427000C3F3090343EA82239EB20023039301A8F8
:10428000FFF7FEFBFFF788FFAB682A7B6988288869
:10429000FFF75EFF002C40F08480FEF7ADF8044687
:1042A000FEF7AAF8001BB0F57A7F22D83E48FFF748
:1042B000EAFB0028F4D103A93B48FFF713FC039B5A
:1042C0001A7A042A28D103F10B0193F88800C41E3E
:1042D0005A7A102A0DD019D80E2A37D00F2A1BD19E
:1042E000B3F80D20B24204D16A680F2A24D0DB7AD9
:1042F00093B1039911B12D48FFF7D1FB01A92A48C9
:10430000FFF762FF4FF0FF3004B070BD3E2A03D1CB
:10431000D97A6A68914231D02448FFF7B4FB20B1C2
:104320002148FFF7B0FB002834D1039901A8FFF71B
:10433000C2FB00230393B0E76B69A34228BF234667
:104340001A466B61286900F06DF90DE09A89B24256
:10435000CFD1821F69698A4228BF0A466A6103F188
:104360000E01286900F05EF903991048FFF797FBEA
:1043700001A90D48FFF728FF0020C5E7021F696962
:104380008A4228BF0A466A6103F10C01286900F0DD
:1043900049F9E9E703990548FFF78DFB00230393EB
:1043A0007BE70020B0E700BF0C06002004060020D9
:1043B00000B583B00023019306E0019808309847C8
:1043C00001990948FFF777FB0848FFF75CFB40B904
:1043D00001A90648FFF786FB054BDB69002BECD1F2
:1043E000EEE703B05DF804FB040600200C06002095
:1043F000E001002030B583B0002301931848FFF797
:1044000042FB18B10124204603B030BD01A9144875
:10441000FFF768FB134BDB68FBB180210198083084
:10442000984710F0FF0012D0019D85F888002846BB
:10443000FFF77FFE044620B929460B48FFF73BFBF8
:10444000E1E729460648FFF72AFB0024DBE701994C
:104450000348FFF724FB0024D5E70024D3E700BF7F
:1044600004060020E00100200C06002000B589B001
:104470000021029103910491059106910791032374
:10448000ADF80830ADF80A300DF1070306930123AB
:10449000079302A8FFF7E6FE002804DB9DF807005B
:1044A00009B05DF804FBFF20FAE72DE9F0418AB07E
:1044B00080460F4616461D4601AC0021019102912F
:1044C0008DF80C10049105910691079108910991BE
:1044D0000423ADF810300123ADF8123008940923FD
:1044E000099304A8FFF7BEFE002816DB9DF8040020
:1044F00080B99DF8053088F80030BDF806303B8063
:104500009DF808303370BDF809302B80BDF80B20C2
:10451000109B1A800AB0BDE8F081FF20FAE7F0B5E1
:1045200091B004460D4602AF20263246002138469F
:1045300000F086F88DF8084022461F2C28BF1F2265
:1045400029460DF1090000F06DF800210A910B9148
:104550000C910D910E910F910823ADF8283009238D
:10456000ADF82A300C970D960DF107030E93012339
:104570000F930AA8FFF776FE002803DB9DF80700DB
:1045800011B0F0BDFF20FBE7DFF834D0FDF7ECFB06
:104590000C480D490D4A002302E0D458C45004339E
:1045A000C4188C42F9D30A4A0A4C002301E0136074
:1045B0000432A242FBD300F011F8FCF734F9FEE715
:1045C00000000A200000002080000020405C00085D
:1045D0008000002014060020FEE7000070B50D4D9D
:1045E0000D4C641BA4100026A64209D10B4D0C4CA7
:1045F00001F030FA641BA4100026A64205D170BD5C
:1046000055F8043B98470136EEE755F8043B9847C8
:104610000136F2E7305C0008305C0008305C0008CE
:10462000345C00080A44914200F1FF3300D1704726
:1046300010B511F8014B03F8014F9142F9D110BDAB
:1046400002440346934200D1704703F8011BF9E787
:1046500038B5104B1D68AB6B0446B3B9182000F099
:1046600097F80246A86320B90B4B0C48422100F092
:104670005BF80B490B4BC0E900130B4B83600B231A
:10468000838100210120C2E90401AB6B00221C617F
:104690005A6138BD1C000020F85A00080F5B000862
:1046A0000E33CDAB34126DE6ECDE0500164B10B5C3
:1046B0001C68A36BB3B9182000F06AF80246A06327
:1046C00020B9124B12484E2100F02EF81149124B1E
:1046D000C0E90013114B83600B238381002101206B
:1046E000C2E90401A16B0E480B694C690D4A58439D
:1046F00002FB0400A3FB0232013340EB0200C1E9DC
:10470000043020F0004010BD1C000020F85A0008C2
:104710000F5B00080E33CDAB34126DE6ECDE050006
:104720002DF451582D7F954C1FB514461A46094B50
:104730001B680546D8684CB1074B0091CDE90134A0
:1047400006492B4600F00EF800F032FB044B1C46E5
:10475000F3E700BF1C000020575B0008645B000803
:10476000925B00080EB403B5014603AB054853F84D
:10477000042B0068019300F01DF902B05DF804EB12
:1047800003B070471C00002070477047704700005E
:10479000024B0146186800F06FB800BF1C000020F3
:1047A00037B5002944D051F8043C0190002BA1F109
:1047B0000404B8BFE41800F021FD1E4A01981368F4
:1047C00033B96360146003B0BDE8304000F01CBD35
:1047D000A34208D9256861198B4201BF19685B683B
:1047E00049192160EDE71A465B680BB1A342FAD97B
:1047F00011685518A5420BD1246821445418A342CE
:104800001160E0D11C685B6853600C441460DAE707
:1048100002D90C230360D6E7256861198B4204BFD7
:1048200019685B68636004BF491921605460CAE776
:1048300003B030BDC004002070B50E4E0C46316888
:10484000054611B900F0E4F930602146284600F031
:10485000DFF9431C0AD0C41C24F00304A04207D093
:10486000211A284600F0D4F9013001D14FF0FF346D
:10487000204670BDC40400202DE9F041CD1C25F078
:10488000030508350C2D38BF0C25002D074601DB2C
:10489000A94205D90C233B6000263046BDE8F081D3
:1048A0002E4E00F0ABFC33681C4634BB294638461C
:1048B000FFF7C2FF431C04464DD134682646002E44
:1048C00040D123683146384604EB030800F0A0F9D4
:1048D00080453AD123680335ED1A25F003050835E4
:1048E0000C2D38BF0C2529463846FFF7A5FF0130AF
:1048F0002BD023682B4423600EE02268521B1ED469
:104900000B2A16D96119A342256018BF5960636844
:1049100008BF316062514B60384604F10B0600F06D
:1049200073FC26F00706231DF21AB6D09B1BA3507A
:10493000B3E76268A3420CBF32605A60ECE72346DB
:104940006468B2E734467668B9E70C233B603846C2
:1049500000F05AFCA1E72560DEE700BFC00400209C
:104960009368013B002B10B4936008DA9469A3426A
:1049700001DB0A2903D15DF8044B00F059B9136833
:10498000581C1060197008465DF8044B7047F8B564
:1049900006460F461446D518AC4201D1002007E068
:1049A00014F8011B3A463046FFF7DAFF431CF3D1F7
:1049B000F8BD00002DE9F04F0D469DB01446984615
:1049C000064618B183690BB900F014FB884B9D4271
:1049D0001BD175686B6ED90705D4AB899A0502D4D3
:1049E000A86DFFF7D2FEAB891B0701D52B69EBB988
:1049F0002946304600F06EF9C0B16B6EDC070ED56B
:104A00004FF0FF301DB0BDE8F08F7A4B9D4201D1D1
:104A1000B568DFE7784B9D4208BFF568DAE7AB89F8
:104A20009805EDD4A86DFFF7B1FEE9E700230993DF
:104A300020238DF82930CDF80C803023DFF8BC819D
:104A40008DF82A304FF0010923469A4613F8012BBE
:104A50000AB1252AF9D1BAEB040B0BD05B462246EA
:104A600029463046FFF793FF013000F0A980099AEC
:104A70005A4409929AF80030002B00F0A1800023DC
:104A80004FF0FF32CDE905230AF1010A04930793A1
:104A90008DF853301A935446052214F8011B5748D9
:104AA000FBF78EFB049AD8B9D10644BF20238DF8BA
:104AB0005330130744BF2B238DF853309AF800303E
:104AC0002A2B15D0079A544600204FF00A0C214695
:104AD00011F8013B303B092B4DD9B0B1079214E0DE
:104AE000A0EB080309FA03F313430493A246D2E7A9
:104AF000039B191D1B680391002BBBBF5B4242F057
:104B0000020207930793B8BF049223782E2B0CD18F
:104B100063782A2B34D1039B1A1D1B680392002B48
:104B2000B8BF4FF0FF3302340593DFF8E0A02178DF
:104B300003225046FBF744FB38B1049BA0EB0A006C
:104B40004022824013430134049314F8011B2C4883
:104B50008DF828100622FBF733FB00283FD0294BA5
:104B60001BBB039B073323F0070308330393099B05
:104B70003B44099368E70CFB02320C460120A6E790
:104B800000230134059319464FF00A0C204610F813
:104B9000012B303A092A03D9002BC6D00591C4E76E
:104BA0000CFB012104460123F0E703AB00932A46E6
:104BB000154B04A93046AFF300800746781CD6D1C8
:104BC0006B6ED90705D4AB899A0502D4A86DFFF79F
:104BD000DDFDAB895B063FF513AF099812E703AB28
:104BE00000932A46084B04A9304600F081FBE4E715
:104BF000C45B0008E45B0008A45B0008935B00084A
:104C00009D5B0008000000008F490008995B0008C8
:104C100038B5064D0023044608462B6000F0B2FD6F
:104C2000431C02D12B6803B1236038BDC8040020A7
:104C3000F8B50E461446054618B183690BB900F065
:104C4000D9F9214B9C422BD16C68A369A360A3893D
:104C50001A072FD523696BB323692068C01A6369CB
:104C6000F6B28342374604DC2146284600F02EF98E
:104C700030BBA368013BA36023685A1C22601E70EE
:104C800063690130834204D0A389DB0706D50A2E6D
:104C900004D12146284600F019F988B93846F8BDF4
:104CA0000A4B9C4201D1AC68CFE7094B9C4208BF3C
:104CB000EC68CAE72146284600F00CF80028CBD063
:104CC0004FF0FF37EAE700BFC45B0008E45B000871
:104CD000A45B0008324B70B51D6806460C4625B132
:104CE000AB6913B9284600F085F92E4B9C420FD1D1
:104CF0006C68A389B4F90C2019072CD4DD0611D4F3
:104D00000923336042F04003A3814FF0FF303EE0BF
:104D1000254B9C4201D1AC68EBE7244B9C4208BF79
:104D2000EC68E6E7580712D5616B41B104F1440322
:104D3000994202D03046FFF733FD00236363A38915
:104D400023F02403A3810023636023692360A389E4
:104D500043F00803A38123694BB9A38903F42073AB
:104D6000B3F5007F03D02146304600F007FAA08952
:104D7000B4F90C2010F001030AD00023A36063698A
:104D80005B42A361236943B910F08000BAD170BDC2
:104D9000810758BF6369A360F4E70020F7E700BF0D
:104DA0001C000020C45B0008E45B0008A45B000852
:104DB00008B5062000F0E6FB012000F0F9FC000039
:104DC0008A892DE9F041054610070C4658D44B68F6
:104DD000002B05DC0B6C002B02DC0020BDE8F08111
:104DE000E66A002EF9D0002312F480522F68216A5F
:104DF0002B6032D0606DA3895A0705D56368C01A4D
:104E0000636B0BB1236CC01A00230246E66A216A69
:104E10002846B047431CA38906D129681D292BD8F1
:104E2000294A0A41D60727D400226260D9042269A0
:104E3000226004D5421C01D12B6803B96065616B07
:104E40002F600029C9D004F14403994202D02846BA
:104E5000FFF7A6FC00206063C0E701232846B047A7
:104E6000411CC8D12B68002BC5D01D2B01D0162B9F
:104E700001D12F60B1E7A38943F04003A381ADE7DF
:104E80000F69002FA9D093070E6808BF4B690F6008
:104E900018BF0023A6EB07088B60B8F1000F9CDD5C
:104EA000216AA66A43463A462846B047002806DCEF
:104EB000A38943F04003A3814FF0FF308EE70744FE
:104EC000A8EB0008E9E700BFFEFFBFDF38B50B69BC
:104ED00005460C4613B90025284638BD18B183692C
:104EE0000BB900F087F8144B9C421BD16C68B4F9E5
:104EF0000C30002BEFD0626ED00704D4990502D499
:104F0000A06DFFF742FC28462146FFF759FF636E6C
:104F1000DA070546E0D4A3899B05DDD4A06DFFF731
:104F200035FCD9E7054B9C4201D1AC68DFE7044B67
:104F30009C4208BFEC68DAE7C45B0008E45B000849
:104F4000A45B0008002310B50446C0E90033C0E9A3
:104F50000433836081814366C281836119460822DC
:104F60005C30FFF76DFB054B6362054BA362054B9D
:104F7000E362054B2462236310BD00BFBD550008EA
:104F8000DF550008175600083B560008014900F09D
:104F9000AFB800BFCD4E000870B568234D1E5D430D
:104FA0000E4605F17401FFF767FC044640B100218D
:104FB000C0E900160C30A06005F16802FFF740FB65
:104FC000204670BD0148FFF7E0BB00BFBD040020D4
:104FD0000148FFF7DBBB00BFBD0400200148FFF71D
:104FE000D4BB00BFBE0400200148FFF7CFBB00BF09
:104FF000BE04002010B50446FFF7F0FFA3691BB103
:10500000BDE81040FFF7F0BFC4E912332365134B2E
:10501000134A1B68A262A34204BF0123A361204676
:1050200000F020F86060204600F01CF8A0602046E8
:1050300000F018F80022E06004216068FFF782FFAA
:10504000A06801220921FFF77DFFE06802221221FA
:10505000FFF778FF0123A361D2E700BFF45A0008ED
:105060008D4F0008F8B50746FFF7ACFF1E4B1E68D2
:10507000B36913B93046FFF7BDFF4836D6E90134AE
:10508000013B03D533680BB33668F7E7B4F90C502E
:10509000D5B9164BE36004F158006566FFF774FB61
:1050A000FFF796FFC4E90155C4E904552560A561E1
:1050B0000822294604F15C00FFF7C2FAC4E90D5545
:1050C000C4E912552046F8BD6834D9E704213846B2
:1050D000FFF762FF044630600028D5D1FFF778FF64
:1050E0000C233B60EEE700BFF45A00080100FFFF0D
:1050F0002DE9F8430646884600F148040027D4E924
:105100000195B9F1010905D52468002CF7D138467D
:10511000BDE8F883AB89012B07D9B5F90E3001330F
:1051200003D029463046C04707436835E9E770B5E4
:105130000C46B1F90E10002996B015461E460DDA40
:10514000A38913F0800F4FF000010CBF4FF4806370
:105150004023002031602B6016B070BD6A4600F01D
:1051600093FA0028ECDB019901F47041A1F500539A
:10517000594259414FF48063EBE700008B8973B5C6
:105180009D0706460C4607D504F1470323602361BB
:105190000123636102B070BD01AB6A46FFF7C7FF30
:1051A000009905463046FFF767FB48B9B4F90C3063
:1051B0009A05EFD423F0030343F00203A381E3E74E
:1051C0000D4BB362A389206043F08003A381009B51
:1051D0006361019B20615BB1B4F90E10304600F0B1
:1051E00065FA28B1A38923F0030343F00103A381E7
:1051F000A3891D43A581CDE78D4F00080148FFF726
:10520000C4BA00BFBC0400200148FFF7BFBA00BF0A
:10521000BC0400202DE9F047164699468A680B69C0
:10522000DDF820809342B8BF1346336091F84320E5
:1052300007460C460AB1013333602368990642BF22
:10524000336802333360256815F0060506D104F192
:10525000190AE36832689B1AAB4226DC94F84320B3
:10526000131E226818BF012392062BD404F14302B7
:1052700049463846C04701301ED02368226903F0F2
:105280000603042B02BFE5683368ED1AA3680CBF60
:1052900025EAE57500259342C4BF9B1AED18002648
:1052A0001A34B5421AD1002008E00123524649467B
:1052B0003846C047013003D14FF0FF30BDE8F087DA
:1052C0000135C6E7E1185A1C302081F8430022441A
:1052D00094F8451082F843100233C7E701232246B1
:1052E00049463846C0470130E6D00136D9E70000CC
:1052F0002DE9FF470F7E0C9D782F914680460C4686
:105300009A4601F1430207D8622F0AD8002F00F015
:10531000D480582F00F0C08004F1420584F8427018
:105320003AE0A7F16303152BF6D801A151F823F059
:10533000895300089D5300081953000819530008A9
:1053400019530008195300089D5300081953000809
:10535000195300081953000819530008A1540008F4
:10536000C95300085B54000819530008195300087A
:10537000C354000819530008C95300081953000802
:1053800019530008635400082B681A1D1B682A6013
:1053900004F1420584F8423001239FE020682B6825
:1053A000070603F10401296001D51E6803E04606E3
:1053B000FBD5B3F90060002E03DA2D23764284F882
:1053C00043305A480A2312E02B682068191D2960CF
:1053D000050601D51E6802E04106FBD51E8853482C
:1053E0006F2F0CBF08230A23002184F8431065683F
:1053F000A560002DA2BF216821F0040121600EB933
:10540000002D4BD01546B6FBF3F103FB1167C75DCA
:1054100005F8017D3746BB420E46F4D9082B0BD167
:105420002368DE0708D5236961689942DEBF30230F
:1054300005F8013C05F1FF35521B2261CDF800A0B3
:105440004B4603AA21464046FFF7E4FE01304AD10D
:105450004FF0FF3004B0BDE8F087236843F020032D
:1054600023603348782784F84570236829681F062D
:1054700051F8046B02D45F0648BFB6B2DF0748BFDD
:1054800043F02003296048BF23601EB9236823F03E
:10549000200323601023A7E72448E4E71546BDE76F
:1054A0002B6826686169181D286035061B6801D5C0
:1054B000196002E07006FBD51980002323611546B0
:1054C000BCE72B681A1D2A601D6862680021284607
:1054D000FAF776FE08B1401B606063682361002321
:1054E00084F84330AAE723692A4649464046D04714
:1054F0000130ADD023689B0713D4E068039B98422A
:10550000B8BF1846A6E70123324649464046D04771
:1055100001309DD00135E36803995B1AAB42F2DCA0
:10552000EBE7002504F11906F5E700BF045C00086D
:10553000155C00081F2938B504460D4604D916230A
:1055400003604FF0FF3038BD426C12B152F8213089
:105550004BB9204600F030F82A4601462046BDE807
:10556000384000F017B8012B0AD0591C03D116237C
:1055700003600120E7E7002442F8254028469847C9
:105580000020E0E7024B01461868FFF7D3BF00BFD9
:105590001C00002038B5074D00230446084611467C
:1055A0002B6000F0D7F8431C02D12B6803B12360B5
:1055B00038BD00BFC804002000F0BCB810B50C46D0
:1055C000B1F90E1000F094F80028ABBF636DA38909
:1055D0001B1823F48053ACBF6365A38110BD2DE974
:1055E000F0411F468B89DB0505460C46164605D55E
:1055F000B1F90E100223002200F068F8A389B4F973
:105600000E1023F48053A38132463B462846BDE862
:10561000F04100F017B810B50C46B1F90E1000F0CB
:1056200055F8431CA38915BF606523F4805343F4E8
:105630008053A38118BFA38110BDB1F90E1000F0F3
:1056400013B8000038B5074D04460846114600223D
:105650002A601A4600F0A4F8431C02D12B6803B15B
:10566000236038BDC804002038B5064D0023044629
:1056700008462B6000F04EF8431C02D12B6803B1A2
:10568000236038BDC804002038B5074D0023044608
:10569000084611462B6000F045F8431C02D12B68E8
:1056A00003B1236038BD00BFC804002038B5064DE3
:1056B0000023044608462B6000F044F8431C02D146
:1056C0002B6803B1236038BDC804002038B5074DEE
:1056D00004460846114600222A601A4600F042F8A5
:1056E000431C02D12B6803B1236038BDC8040020DD
:1056F00038B5074D04460846114600222A601A466E
:1057000000F038F8431C02D12B6803B1236038BD88
:10571000C8040020024B58221A604FF0FF30704737
:10572000C8040020024B58221A604FF0FF30704727
:10573000C8040020024B58221A604FF0FF30704717
:10574000C8040020024B58221A600020704700BF96
:10575000C8040020024B58221A604FF0FF307047F7
:10576000C8040020024B58221A604FF0FF307047E7
:10577000C8040020024B58221A604FF0FF307047D7
:10578000C8040020044A05491368002B08BF0B46D3
:105790001844106018467047CC04002018060020FA
:1057A000024B58221A604FF0FF307047C8040020A7
:1057B000FEE700BF2DE9F04786468C460846089E66
:1057C000154674461946002B40F0C2808542B2FA55
:1057D00082F245D94AB1C2F1200300FA02FC2EFA46
:1057E00003F3954043EA0C0C94404FEA154EA8B2DF
:1057F000BCFBFEF8230C0EFB18CC08FB00F943EAB7
:105800000C43994528D9EB1808F1FF3704D2994584
:1058100002D9A8F102072B44A3EB0903A4B2B3FBFE
:10582000FEFC0EFB1C330CFB00F044EA0344A042D8
:1058300014D92C190CF1FF3304D2A04202D9ACF1D7
:1058400002032C44241A43EA07401EB1D44000232B
:1058500034607360BDE8F0874746DDE76346F1E7F3
:1058600092BB431B01214FEA154EAFB2B3FBFEFCC6
:10587000200C0EFB1C330CFB07F840EA0343984551
:1058800062D9EB180CF1FF3004D2984502D9ACF183
:1058900002002B44A3EB0803A4B2B3FBFEFC0EFBF7
:1058A0001C330CFB07F744EA0344A7424ED92C19DA
:1058B0000CF1FF3304D2A74202D9ACF102032C440D
:1058C000E41B43EA0040C0E7C2F1200320FA03F1E1
:1058D000954090402EFA03F303434FEA154EAFB2C2
:1058E000B1FBFEFC0EFB1C10190C0CFB07F841EA87
:1058F0000041884504FA02F422D969180CF1FF30FE
:1059000004D2884502D9ACF102002944A1EB080178
:105910009BB2B1FBFEFC0EFB1C110CFB07F743EA2C
:1059200001439F420ED9EB180CF1FF3104D29F4284
:1059300002D9ACF102012B44DB1B41EA004192E7A2
:105940006046E3E76146F7E76046A3E76346B7E7EB
:10595000834206D916B9002108467BE7C6E900E074
:10596000F9E7B3FA83F78FB9834201D3724508D8B8
:10597000BEEB020460EB030301209C461EB900212C
:1059800068E73846FAE7C6E9004CF8E7C7F1200CAB
:10599000BB4022FA0CF41C432EFA0CF120FA0CF353
:1059A000B84001434FEA14490EFA07F5B3FBF9F882
:1059B0001FFA84FE09FB18300B0C08FB0EFA43EAB1
:1059C00000439A4502FA07F240D9E31808F1FF3084
:1059D00004D29A4502D9A8F102002344A3EB0A039A
:1059E00089B2B3FBF9F809FB183308FB0EFE41EA54
:1059F00003418E452CD9611808F1FF3304D28E453E
:105A000002D9A8F10203214443EA0040A0FB029816
:105A1000A1EB0E014145CE46434602D306D14D458A
:105A200004D2B9EB020E68EB04030138002EA6D0B5
:105A3000B5EB0E0261EB030101FA0CFC22FA07F34D
:105A40004CEA0303F940C6E9003198E74046C5E750
:105A50004346D9E7F8B500BFF8BC08BC9E4670477E
:105A6000F8B500BFF8BC08BC9E46704700000000B7
:105A70000B000000000000000A0000000000000011
:105A8000426C75654E52470009426C75654E52472F
:105A900000000000A0860100400D0300801A0600EF
:105AA00000350C0040420F0080841E0000093D00BC
:105AB00000127A000024F40000366E010048E8016C
:105AC000006CDC0200000000010203040000000082
:105AD000000000000102030406070809010002009B
