:020000040800F2
:1000000000000A204D3C00081709000819090008E3
:100010001B0900081D0900081F0900080000000056
:10002000000000000000000000000000210900089E
:10003000230900080000000025090008270900081E
:100040009D3C00089D3C00089D3C00089D3C00082C
:100050009D3C00089D3C00089D3C00089D3C00081C
:100060009D3C00082F0900089D3C00089D3C0008AD
:100070009D3C00089D3C00089D3C00089D3C0008FC
:100080009D3C00089D3C00089D3C00089D3C0008EC
:100090009D3C00089D3C00089D3C00083909000873
:1000A0009D3C00089D3C00089D3C00089D3C0008CC
:1000B0009D3C00089D3C00089D3C00089D3C0008BC
:1000C0009D3C00089D3C00089D3C00089D3C0008AC
:1000D0009D3C00089D3C00089D3C00089D3C00089C
:1000E000590900089D3C00089D3C00089D3C000803
:1000F0009D3C00089D3C00089D3C0008000000005D
:100100009D3C00089D3C00089D3C00089D3C00086B
:100110009D3C00089D3C00089D3C00089D3C00085B
:100120009D3C00089D3C00089D3C00089D3C00084B
:100130009D3C00089D3C00089D3C00089D3C00083B
:100140009D3C00089D3C00089D3C00089D3C00082B
:100150009D3C00089D3C00089D3C00089D3C00081B
:100160009D3C00089D3C00089D3C00089D3C00080B
:100170009D3C00089D3C0008000000009D3C0008DC
:100180009D3C00089D3C00089D3C00089D3C0008EB
:100190009D3C00089D3C000800000000000000009D
:1001A00000000000000000009D3C00089D3C00088D
:1001B0009D3C00089D3C00089D3C0008000000009C
:1001C00053B94AB9002908BF00281CBF4FF0FF31BE
:1001D0004FF0FF3000F00CB8ADF1080C6DE904CE23
:1001E00003F08AFDDDF804E0DDE9022304B0704786
:1001F000704700BF10B5054C237833B9044B13B1D9
:100200000448AFF300800123237010BD10000020CC
:1002100000000000983F000808B5034B1BB10349DC
:100220000348AFF3008008BD000000001400002068
:10023000983F00082DE9F0478CB0002407940894FB
:1002400009940A940B947D4BDA6C42F01002DA6444
:10025000DA6C02F010020192019ADA6C42F00402A8
:10026000DA64DA6C02F004020292029ADA6C42F06A
:100270008002DA64DA6C02F080020392039ADA6C8C
:1002800042F00102DA64DA6C02F001020492049A8C
:10029000DA6C42F00202DA64DA6C02F002020592D1
:1002A000059ADA6C42F00802DA64DB6C03F00803AA
:1002B0000693069B624F224640F20511384602F033
:1002C0005BF9224648F214114FF0904002F054F9C5
:1002D000DFF8708122464FF23401404602F04CF9BB
:1002E000DFF864A1224642F28301504602F044F94D
:1002F000DFF8589122464FF41071484602F03CF95D
:1003000040F2051307930125089509940A9407A95B
:10031000384602F039F8722307934FF4881608968E
:10032000099407A9384602F02FF84FF406530793B3
:100330000896099407A9484602F026F848F21413D3
:100340000793089509940A9407A94FF0904002F08A
:100350001BF8082307930896099407A94FF09040CB
:1003600002F012F807950896099407A9404602F092
:100370000BF802270797089709940A940B9707A987
:10038000404602F001F84FF23403079308950994B0
:100390000A9407A9404601F0F7FF4DF6044307937E
:1003A0000896099407A9504601F0EEFF42F2830334
:1003B0000793089509940A9407A9504601F0E4FFB1
:1003C0004FF410730793089509940A9407A94846B7
:1003D00001F0DAFF4FF4007307930894099407A91A
:1003E0004FF0904001F0D0FF4FF4E053079308978F
:1003F000099403230A930A230B9307A94FF0904013
:1004000001F0C2FF22462146092002F0BDF9092071
:1004100002F0CAF922462146172002F0B5F917204A
:1004200002F0C2F922462146282002F0ADF9282028
:1004300002F0BAF90CB0BDE8F08700BF001002402E
:100440000010004800040048000C00480008004864
:1004500072B6FEE700B587B00023009301930293C4
:100460000393049305931848184A0260436083601D
:10047000C360036104224261037643760122C261B4
:1004800080F820308362C36280F83030436380F8A4
:10049000383002F0E3F990B90D4B00930623019335
:1004A000002302937F22039204220492059369465B
:1004B000054802F0C3FA20B907B05DF804FBFFF766
:1004C000C7FFFFF7C5FF00BF000400200000045075
:1004D0000200300408B50C480C4B03600122027185
:1004E000002383600221C160036143618361C361B2
:1004F0000421016243628262C362036302F0EEFC84
:1005000000B908BDFFF7A4FFC80300204060014008
:1005100008B51348134B0360A3F17863A3F57D235B
:10052000A3F64F634360002383600122C26003612E
:1005300043618361C361036200F048FD50B900214B
:10054000074800F0A1FD38B90021054800F0CAFDB8
:1005500020B908BDFFF77CFFFFF77AFFFFF778FFB0
:10056000740300200054004008B51348134B036087
:10057000A3F17863A3F57E23A3F24F234360002306
:1005800083600122C260036143618361C3610362CE
:1005900000F01CFD50B90021074800F075FD38B986
:1005A0000021054800F09EFD20B908BDFFF750FF6F
:1005B000FFF74EFFFFF74CFF2003002000580040DC
:1005C00000B587B00023019302930393049305932E
:1005D0001548164A02600122426083604FF0807124
:1005E000C1602021016142618361C3610262436293
:1005F0008362C3620823036302F08EFD78B901238E
:10060000019303934FF00113049341F2883201A93F
:10061000054802F0F9FD20B907B05DF804FBFFF7CB
:1006200017FFFFF715FF00BFD0020020001000A049
:1006300008B50F480F4B03604FF4827343600023EB
:1006400083604FF44072C260036143614FF40072F3
:100650008261C3610362436283620722C2620363F1
:100660000823436300F0F8FB00B908BDFFF7F0FE74
:100670006C0200200030014008B51548154B03609E
:100680004FF4E133436000238360C36003610C22B5
:1006900042618361C36103624362836203F009FACA
:1006A00070B900210A4803F07CFA58B900210848C3
:1006B00003F09CFA40B9064803F054FA30B908BD7B
:1006C000FFF7C6FEFFF7C4FEFFF7C2FEFFF7C0FE4E
:1006D000DC010020004C004008B51648164B0360B2
:1006E0004FF4E133436000238360C36003610C2255
:1006F00042614FF440728261C3610362436283626C
:1007000003F0D7F970B900210A4803F04AFA58B942
:100710000021084803F06AFA40B9064803F022FABB
:1007200030B908BDFFF794FEFFF792FEFFF790FE89
:10073000FFF78EFEBC0000200044004008B51548BD
:10074000154B03604FF4E133436000238360C360C3
:1007500003610C2242618361C3610362436283626D
:1007600003F0A7F970B900210A4803F01AFA58B942
:100770000021084803F03AFA40B9064803F0F2F9BC
:1007800030B908BDFFF764FEFFF762FEFFF760FEB9
:10079000FFF75EFE2C0000200048004008B5154819
:1007A000154B03604FF4E133436000238360C36063
:1007B00003610C2242618361C3610362436283620D
:1007C00003F077F970B900210A4803F0EAF958B943
:1007D0000021084803F00AFA40B9064803F0C2F9BC
:1007E00030B908BDFFF734FEFFF732FEFFF730FEE9
:1007F000FFF72EFE4C0100200038014000B597B0F5
:100800004422002105A803F06FFA00200090019017
:1008100002900390049001F0DDFE002830D101F039
:10082000BFFE1A4AD2F8903023F01803C2F8903075
:1008300014230593012207920B9200230C9360234B
:100840000D9302230F93109211923C221292139354
:100850001493159305A800F04FFD98B90F2300934A
:100860000323019300230293039304930521684615
:1008700001F080F840B901F07FFD17B05DF804FB8E
:10088000FFF7E6FDFFF7E4FDFFF7E2FD0010024091
:1008900000B5A7B09422002101A803F025FA4FF477
:1008A000C04301934FF0805321934FF080631E9318
:1008B00001230293039318230493022305930693C1
:1008C00007934FF08873089301A801F0E7FA10B975
:1008D00027B05DF804FBFFF7BBFD08B500F054FB43
:1008E000FFF78CFFFFF7D4FFFFF7A4FCFFF7B2FD83
:1008F000FFF7F0FDFFF70CFEFFF736FEFFF760FE97
:10090000FFF796FEFFF7B8FEFFF7E6FEFFF716FFCC
:10091000FFF744FFFEE7FEE7FEE7FEE7FEE7FEE740
:1009200070477047704708B500F03EFB08BD08B53A
:10093000082001F027FE08BD08B5202001F022FEA6
:10094000402001F01FFE802001F01CFE4FF480705B
:1009500001F018FE08BD000008B54FF4806001F0FA
:1009600011FE4FF4006001F00DFE4FF4805001F0D5
:1009700009FE064801F030FF4FF4804001F002FE0E
:100980004FF4004001F0FEFD08BD00BF6C040020E4
:1009900082B00A4B1A6E42F001021A661A6E02F019
:1009A00001020092009A9A6D42F080529A659B6D06
:1009B00003F080530193019B02B070470010024086
:1009C00000B589B00023039304930593069307931E
:1009D0000268124B9A4202D009B05DF804FB03F1A1
:1009E0007043A3F5F833DA6C42F40052DA64DA6C3F
:1009F00002F400520192019ADA6C42F00402DA64C5
:100A0000DB6C03F004030293029B3F2303930B234D
:100A1000049303A9024801F0B7FCDDE7000004508D
:100A20000008004800B5ADB0002127912891299118
:100A30002A912B91942202A803F056F91A4B1B68B5
:100A400013B12DB05DF804FB4FF48033029302A87C
:100A500001F024FA28BB154B1A6E42F080721A6618
:100A60001A6E02F080720092009ADA6C42F0100264
:100A7000DA64DB6C03F010030193019B4FF42073E5
:100A8000279302232893002329932A9306232B9349
:100A900027A9074801F078FC034A13680133136063
:100AA000CFE7FFF7D5FCD6E768040020001002402E
:100AB0000010004810B5AEB00446002129912A91DB
:100AC0002B912C912D91942204A803F00DF9236809
:100AD0002F4A934204D02F4A93422DD02EB010BDFE
:100AE0004023049304A801F0D9F910BB2A4CE36C0D
:100AF00043F00203E364E36C03F002030093009B02
:100B00004FF44073299312232A9301232B93032339
:100B10002C9304232D9329A9204801F035FCA36DC3
:100B200043F40013A365A36D03F400130193019B29
:100B3000D4E7FFF78DFCD9E78023049304A801F0E4
:100B4000ADF910BB144CE36C43F00203E364E36CB7
:100B500003F002030293029B4FF440632993122394
:100B60002A9301232B9303232C9304232D9329A948
:100B70000A4801F009FCA36D43F48003A365A36D4B
:100B800003F480030393039BA8E7FFF761FCD9E715
:100B9000005400400058004000100240000400488B
:100BA00010B5AEB00446002129912A912B912C91C9
:100BB0002D91942204A803F097F822681D4B9A42C5
:100BC00001D02EB010BD4FF08073049304A801F043
:100BD00065F900282BD1184BDA6C42F48012DA64E4
:100BE000DA6C02F480120192019A1A6D42F480725A
:100BF0001A651A6D02F480720292029ADA6C42F05F
:100C00001002DA64DB6C03F010030393039B4FF4D0
:100C10007C43299302232A9300232B9303232C93B1
:100C20000A232D9329A9054801F0AEFBC9E7FFF778
:100C30000FFCD0E7001000A0001002400010004898
:100C400000B589B00023039304930593069307939B
:100C50000268144B9A4202D009B05DF804FB03F518
:100C600060431A6E42F480521A661A6E02F4805281
:100C70000192019ADA6C42F00102DA64DB6C03F053
:100C800001030293029BE0230393022304930323B3
:100C900006930523079303A94FF0904001F074FBDE
:100CA000DAE700BF0030014010B5B2B004460021C1
:100CB0002D912E912F9130913191942208A803F01B
:100CC00013F823685D4A93420BD05D4A934233D0B8
:100CD0005C4A93425BD05C4A934200F0838032B01E
:100CE00010BD0823089308A801F0D8F808BB574B9B
:100CF0009A6D42F400229A659A6D02F400220092E5
:100D0000009ADA6C42F00102DA64DB6C03F0010352
:100D10000193019B03232D9302222E9200222F92F6
:100D20003093082331932DA94FF0904001F02CFB14
:100D3000D5E7FFF78DFBDAE70123089308A801F058
:100D4000ADF808BB414B1A6E42F480421A661A6E27
:100D500002F480420292029ADA6C42F00202DA64F1
:100D6000DB6C03F002030393039BC0232D93022348
:100D70002E9300232F9303233093072331932DA920
:100D8000334801F001FBAAE7FFF762FBDAE7022331
:100D9000089308A801F082F808BB2C4B9A6D42F426
:100DA00000329A659A6D02F400320492049ADA6C69
:100DB00042F00802DA64DB6C03F008030593059B3C
:100DC00078232D9302232E9300232F930323309314
:100DD000072331932DA91F4801F0D6FA7FE7FFF7CB
:100DE00037FBDAE70423089308A801F057F810BB93
:100DF000164B9A6D42F480229A659A6D02F4802215
:100E00000692069ADA6C42F00802DA64DB6C03F0B0
:100E100008030793079B4FF440732D9302232E93EF
:100E200000232F9303233093072331932DA90948DF
:100E300001F0AAFA53E7FFF70BFBD9E7004C00409B
:100E400000380140004400400048004000100240CB
:100E500000040048000C004800286AD010B5044681
:100E6000436A33B94368B3F5827F05D00023C36179
:100E700002E00023036143610023A36294F85D3024
:100E8000002B4DD0022384F85D302268136823F0D4
:100E900040031360E368B3F5E06F47D90022B3F570
:100EA000706F04D0B3F5E06F01D00023A3626368D4
:100EB00003F48273A16801F404410B43216901F03A
:100EC00002010B43616901F001010B43A16901F4C7
:100ED00000710B43E16901F038010B43216A01F015
:100EE00080010B43A16A01F4005120680B430360A9
:100EF000638B03F00403616A01F010010B43616B23
:100F000001F008010B43E16801F470610B432168B3
:100F10001A434A6000202066012384F85D3010BD2A
:100F200084F85C302046FFF78BFEABE74FF480522D
:100F3000B5E7012070470000104B1B780BB901206A
:100F4000704710B504464FF47A70B0FBF3F30C4AC7
:100F50001068B0FBF3F001F02BFC68B90F2C01D93D
:100F600001200AE0002221464FF0FF3001F00CFC86
:100F7000044B1C60002000E0012010BD0000002098
:100F8000080000200400002010B5032001F0EAFB57
:100F90000020FFF7D1FF10B10124204610BD044608
:100FA000FFF7F6FCF9E70000034B1B78034A1168D2
:100FB0000B441360704700BF000000207404002041
:100FC000014B1868704700BF74040020002859D0F6
:100FD00010B5044690F84130002B43D0242384F808
:100FE00041302268136823F00103136063682268AC
:100FF00023F0706313612268936823F400439360C5
:10100000E368012B33D0A368226843F40443936060
:10101000E368022B31D02268536843F0007343F435
:10102000004353602268D36823F40043D3602369EC
:1010300062691343A169226843EA0123D360E3692B
:10104000216A22680B4313602268136843F001038E
:10105000136000206064202384F84130206384F80A
:10106000420010BD80F84030FFF724FDB6E7A368CA
:10107000226843F400439360CAE723684FF4006298
:101080005A60C8E701207047034690F84120D2B269
:10109000202A23D190F84020012A21D0012280F873
:1010A0004020242280F841200068026822F00102DA
:1010B00002601868026822F48052026018680268B0
:1010C0001143016019680A6842F001020A60202297
:1010D00083F84120002083F84000704702207047C9
:1010E00002207047034690F84120D2B2202A21D135
:1010F00090F84020012A1FD0012280F840202422AD
:1011000080F841200068026822F00102026018683D
:10111000026822F4706242EA0122026019680A68D9
:1011200042F001020A60202283F84120002083F867
:101130004000704702207047022070471A4BDB685E
:1011400003F00303022B2BD0032B2BD0012B14D045
:101150000021154AD368C3F303130133D068C0F3E9
:10116000062001FB00F0B0FBF3F0D368C3F341634A
:1011700001335B00B0FBF3F070470B4B1B6813F0BF
:10118000080F08D1084BD3F89430C3F30323074A60
:1011900052F82310DDE7044B1B68C3F30313F6E793
:1011A0000349D6E70349D4E700100240D83F0008BE
:1011B0000024F40000127A0030B583B004461F4BBF
:1011C0009B6D13F0805F0AD001F0F2F9B0F5007F5B
:1011D00016D07F2C1ED8702C2BD000211BE0174D71
:1011E000AB6D43F08053AB65AB6D03F0805301935F
:1011F000019B01F0DDF9AB6D23F08053AB65E5E7B2
:10120000802C03D9A02C03D9022104E0002102E0A4
:10121000012100E002210A4A136823F00F030B4367
:101220001360136803F00F038B4204D1002003B056
:1012300030BD0121EFE70120F9E700BF00100240B7
:1012400000200240284A9368D26802F0030213F09B
:101250000C030AD00C2B06D0042B1FD0082B20D057
:101260000020024610E0012AF6D11F4A126812F04F
:10127000080F0CD11C4AD2F89420C2F303221B4958
:1012800051F8222043B100200C2B0DD07047164A94
:101290001268C2F30312F2E71046F5E71448002281
:1012A000F2E714480022EFE70F4BDB6803F003037B
:1012B000022B16D0032B00D10E4A0B49CB68C3F387
:1012C00003130133C868C0F3062002FB00F0B0FB33
:1012D000F3F0CB68C3F3416301335B00B0FBF3F081
:1012E000D4E7034AE9E700BF00100240D83F0008F6
:1012F0000024F40000127A00002800F02283F0B5E8
:1013000083B00446964B9D6805F00C05DE6806F038
:101310000306036813F0100F5AD0E5B10C2D18D056
:10132000A369002B00F0BB808D4A136843F00103D2
:101330001360FFF745FE0746894B1B6813F0020F49
:1013400040F09A80FFF73CFEC01B0228F4D903202E
:1013500002E3012EE4D1824B1B6813F0020F03D08D
:10136000A369002B00F0EF82206A7D4B1B6813F00D
:10137000080F5BD07A4B1B6803F0F00398425CD8EF
:10138000774B1A6842F008021A601A6822F0F002DD
:10139000216A0A431A605A6822F47F42E16942EAEC
:1013A00001225A60002D60D0FFF74CFF6C4B9B6808
:1013B000C3F303136B4AD35C03F01F03D8406A4B9B
:1013C00018606A4B1868FFF7B7FD002840F0C48228
:1013D000236813F0010F00F08180082D75D00C2DCB
:1013E00071D06368B3F5803F00F09780B3F5A02F0C
:1013F00000F099805A4B1A6822F480321A601A68F9
:1014000022F480221A606368002B00F09980FFF7B5
:10141000D7FD0746524B1B6813F4003F5ED1FFF720
:10142000CFFDC01B6428F5D9032095E24C4BD3F8BF
:1014300094301B0903F0F003A0E7FFF7BDFE00287E
:1014400040F08382464B1A6842F008021A601A681C
:1014500022F0F002216A0A431A605A6822F47F429D
:10146000E16942EA01225A609EE7206AFFF7A4FE82
:10147000002899D001206FE2394B1A6842F0080227
:101480001A601A6822F0F002216A0A431A605A6848
:1014900022F47F42E16942EA01225A6098E7304A29
:1014A000136823F001031360FFF78AFD07462C4BF6
:1014B0001B6813F0020F8BD0FFF782FDC01B0228C0
:1014C000F5D9032048E2032E8BD1254B1B6813F47A
:1014D000003F03D06368002B00F03982236813F0CB
:1014E000020F58D0042D45D00C2D41D0E368002BBD
:1014F00077D01B4A136843F480731360FFF760FDD5
:101500000646174B1B6813F4806F61D1FFF758FD37
:10151000801B0228F5D903201EE2114A136843F408
:10152000803313606FE703F18043A3F53C331A68FF
:1015300042F480221A601A6842F480321A6062E72C
:10154000FFF73EFD0746064B1B6813F4003FC5D06E
:10155000FFF736FDC01B6428F5D90320FCE100BF6E
:101560000010024010400008080000200400002085
:10157000022EBBD1A74B1B6813F4806F03D0E36826
:10158000002B00F0E681A34A536823F0FE43216953
:1015900043EA01635360236813F0080F4CD063697A
:1015A0009BB39C4AD2F8943043F00103C2F89430C4
:1015B000FFF706FD0646974BD3F8943013F0020F61
:1015C0003AD1FFF7FDFC801B0228F4D90320C3E1C8
:1015D000904A536823F0FE43216943EA0163536054
:1015E000D9E78C4A136823F480731360FFF7E8FC93
:1015F0000646884B1B6813F4806FCCD0FFF7E0FCE5
:10160000801B0228F5D90320A6E1824AD2F8943043
:1016100023F00103C2F89430FFF7D2FC06467D4B5D
:10162000D3F8943013F0020F06D0FFF7C9FC801BEB
:101630000228F4D903208FE1236813F0040F7AD035
:10164000744B9B6D13F0805F36D1724B9A6D42F0F4
:1016500080529A659B6D03F080530193019B012694
:101660006D4B1B6813F4807F28D0A368012B39D001
:10167000052B3FD0674BD3F8902022F00102C3F82E
:101680009020D3F8902022F00402C3F89020A368A1
:10169000002B3DD0FFF794FC07465E4BD3F890300B
:1016A00013F0020F46D1FFF78BFCC01B41F28833C9
:1016B0009842F2D903204FE10026D1E7564A136839
:1016C00043F480731360FFF77BFC0746524B1B68A3
:1016D00013F4807FC9D1FFF773FCC01B0228F5D932
:1016E000032039E14B4AD2F8903043F00103C2F8AD
:1016F0009030CCE7474BD3F8902042F00402C3F877
:101700009020D3F8902042F00102C3F89020BEE769
:10171000FFF756FC07463F4BD3F8903013F0020F0B
:1017200008D0FFF74DFCC01B41F288339842F2D934
:10173000032011E1E6B9236813F0200F35D0636A66
:10174000E3B1344AD2F8983043F00103C2F898303C
:10175000FFF736FC06462F4BD3F8983013F0020FF4
:1017600023D1FFF72DFC801B0228F4D90320F3E0DE
:10177000284A936D23F080539365DCE7254AD2F81D
:10178000983023F00103C2F89830FFF719FC0646A1
:10179000204BD3F8983013F0020F06D0FFF710FC5F
:1017A000801B0228F4D90320D6E0A36A002B00F0A6
:1017B000D280022B17D00C2D00F0D480154A13686C
:1017C00023F080731360FFF7FBFB0446114B1B688B
:1017D00013F0007F00F0AE80FFF7F2FB001B022841
:1017E000F4D90320B8E00B4BDB6803F00301E26A95
:1017F000914213D00C2D00F0B180064B1B6813F002
:10180000806F40F0AD80034B1B6813F0805F2FD0DA
:101810000120A1E0001002400070004003F0F0023F
:10182000216B0139B2EB011FE4D103F4FE42616B7D
:10183000B2EB012FDED103F07842A16BB2EBC16FA6
:10184000D8D103F4C001E26B5208013AB1EB425F18
:10185000D0D103F0C063226C5208013AB3EB426F5F
:10186000C8D1414B1B6813F0007F49D0002073E0C2
:101870003D4A136823F080731360FFF7A1FB054610
:10188000394B1B6813F0007F06D0FFF799FB401B14
:101890000228F5D903205FE0334AD3683349194061
:1018A000E36A206B013843EA0013606B43EA0023CC
:1018B000E06B4008013843EA4053206C400801388F
:1018C00043EA4063A06B43EAC0631943D1601368E5
:1018D00043F080731360D36843F08073D360FFF7E5
:1018E0006FFB0446204B1B6813F0007F06D1FFF707
:1018F00067FB001B0228F5D903202DE000202BE018
:10190000194B1A6842F080721A60DA6842F08072ED
:10191000DA60FFF755FB0446134B1B6813F0007F9A
:1019200006D1FFF74DFB031B022BF5D9032013E073
:10193000002011E00C4AD1680D4B0B40D360002011
:101940000AE001207047012006E0012004E00120A8
:1019500002E0012000E0002003B0F0BD0120FBE721
:101960000120F9E70120F7E7001002400C809D01FB
:10197000FCFFEEFE002800F0EA80F8B50D460446B4
:10198000774B1B6803F00F038B420BD2744A13682A
:1019900023F00F030B431360136803F00F038B4214
:1019A00040F0D780236813F0020F0CD0A2686D4B73
:1019B0009B6803F0F0039A4205D96A498B6823F0CB
:1019C000F0031A438A60236813F0010F6ED0636836
:1019D000032B0DD0022B25D0002B3CD103F18043EB
:1019E00003F504331B6813F0020F21D10120A7E097
:1019F0005C4B1B6813F0007F01D10120A0E0FFF7D2
:101A00009DFB594B98422DD9564B9B6813F0F00F14
:101A10002AD1544A936823F0F00343F08003936083
:101A2000802724E04F4B1B6813F4003F00F09380A5
:101A3000FFF708FC4C4B984218D94A4B9B6813F0AF
:101A4000F00F2FD1474A936823F0F00343F080034F
:101A5000936080270BE0434B1B6813F4806FE7D142
:101A600001206DE0002702E0002700E000273D4A4A
:101A7000936823F0030361680B439360FFF7A0FAB8
:101A80000646384B9B6803F00C036268B3EB820F89
:101A90000AD0FFF795FA801B41F288339842F0D9BB
:101AA00003204DE00027E2E7002F4AD1236813F01E
:101AB000020F0CD0A2682B4B9B6803F0F0039A42F4
:101AC00005D228498B6823F0F0031A438A60244B1F
:101AD0001B6803F00F03AB420AD9214A136823F0B5
:101AE0000F032B431360136803F00F03AB4234D191
:101AF000236813F0040F06D01A4A936823F4E063B6
:101B0000E1680B439360236813F0080F07D0154A70
:101B1000936823F46053216943EAC1039360FFF79C
:101B200091FB104B9B68C3F30313104AD35C03F083
:101B30001F03D8400E4B18600E4B1868FFF7FCF9D6
:101B4000F8BD084A936823F0F0039360AEE70120E4
:101B500070470120F4E70120F2E70120F0E700BF21
:101B6000002002400010024000B4C40410400008ED
:101B70000800002004000020014B1868704700BFD7
:101B80000800002008B5FFF7F7FF054B9B68C3F37B
:101B90000223044AD35C03F01F03D84008BD00BFF2
:101BA000001002400840000808B5FFF7E5FF054BAC
:101BB0009B68C3F3C223044AD35C03F01F03D840DD
:101BC00008BD00BF0010024008400008F8B50446F8
:101BD0000E46544BDB6813F0030F0DD0514BDB68FE
:101BE00003F003030268934201D001250CE0002AB0
:101BF00000F09680002517E00368022B55D0032BD8
:101C00005AD0012B02D001252846F8BD454A12685A
:101C100012F0020F5CD04349CA6822F0030213435A
:101C2000CB600025002DEFD13E4A136823F080538E
:101C30001360FFF7C5F907463A4B1B6813F0005FC6
:101C400005D0FFF7BDF9C31B022BF5D90325002DE5
:101C5000DAD1002E3ED133484369334A1A40A16895
:101C6000E368DB0643EA01236168013943EA0113B3
:101C70001A4342612B4A136843F080531360FFF705
:101C80009FF90646274B1B6813F0005F05D1FFF74D
:101C900097F9801B0228F5D90325002DB4D1214ADC
:101CA0005369A1690B435361AEE71E4A126812F4EF
:101CB000806FB0D10125A7E71A4A126812F4003FDD
:101CC000A9D1184A126812F4802FA4D101259BE7EC
:101CD0000125A7E7012E11D012484369134A1A4083
:101CE000A16863695B08013B5B0643EA0123616805
:101CF000013943EA01131A434261BBE709484369CA
:101D00000B4A1A40A16823695B08013B5B0543EA63
:101D100001236168013943EA01131A434261A9E7CB
:101D2000012571E7001002400F80FF070F80FFF9C7
:101D30000F809FFFF8B504460E46544BDB6813F046
:101D4000030F0DD0514BDB6803F00303026893428D
:101D500001D001250CE0002A00F09680002517E054
:101D60000368022B55D0032B5AD0012B02D001253A
:101D70002846F8BD454A126812F0020F5CD043496C
:101D8000CA6822F003021343CB600025002DEFD177
:101D90003E4A136823F080631360FFF711F907468A
:101DA0003A4B1B6813F0006F05D0FFF709F9C31B0E
:101DB000022BF5D90325002DDAD1002E3ED1334870
:101DC0000369334A1A40A168E368DB0643EA01234A
:101DD0006168013943EA01131A4302612B4A13680F
:101DE00043F080631360FFF7EBF80646274B1B6850
:101DF00013F0006F05D1FFF7E3F8801B0228F5D937
:101E00000325002DB4D1214A1369A1690B43136145
:101E1000AEE71E4A126812F4806FB0D10125A7E721
:101E20001A4A126812F4003FA9D1184A126812F433
:101E3000802FA4D101259BE70125A7E7012E11D012
:101E400012480369134A1A40A16863695B08013BA1
:101E50005B0643EA01236168013943EA01131A432F
:101E60000261BBE7094803690B4A1A40A16823696C
:101E70005B08013B5B0543EA01236168013943EAE2
:101E800001131A430261A9E7012571E7001002401E
:101E90000F80FF070F80FFF90F809FFF2DE9F041B2
:101EA00082B00446036813F4006F34D0C36E402B35
:101EB0001FD00BD823B3202B05D100212030FFF7F2
:101EC00085FE064621E001273E4626E0602B20D015
:101ED000802B0BD10026634AD2F89C3023F0E0031C
:101EE000E16E0B43C2F89C30002716E001273E4606
:101EF00013E05C4AD36843F48033D3600026EAE7FA
:101F000000210430FFF716FF0646002EE3D03746C7
:101F100003E00026DFE700273E46236813F4805FD6
:101F200033D0236FB3F5007F22D00DD833B3B3F590
:101F3000807F06D1002104F12000FFF747FE06460E
:101F400008E001273E4620E0B3F5407F02D0B3F51C
:101F5000806F0AD1C6B9434AD2F89C3023F4E063BB
:101F6000216F0B43C2F89C300FE001273E460CE086
:101F70003C4AD36843F48033D360EBE70021201D53
:101F8000FFF7D8FE0646E5E73746236813F4003F1F
:101F900071D0344B9B6D13F0805F4ED1314B9A6DF5
:101FA00042F080529A659B6D03F080530193019B30
:101FB0004FF001082C4A136843F480731360FEF756
:101FC000FFFF0546284B1B6813F4807F05D1FEF701
:101FD000F7FF401B0228F5D90326002E46D1214BDE
:101FE000D3F8903013F4407316D0D4F890209A426E
:101FF00012D01C4AD2F8903023F44073D2F89010DB
:1020000041F48031C2F89010D2F8901021F4803160
:10201000C2F89010C2F8903013F0010F10D1002ECA
:1020200040F059810F4AD2F8903023F44073D4F82D
:1020300090100B43C2F8903019E04FF00008B9E758
:10204000FEF7BEFF0546074BD3F8903013F0020FA2
:10205000E5D1FEF7B5FF401B41F288339842F2D933
:102060000326DCE700100240007000403746B8F15C
:10207000000F40F03281236813F0010F08D0B64AF8
:10208000D2F8883023F00303E16B0B43C2F88830A9
:10209000236813F0020F08D0AF4AD2F8883023F03B
:1020A0000C03216C0B43C2F88830236813F0040F33
:1020B00008D0A94AD2F8883023F03003616C0B4372
:1020C000C2F88830236813F0080F08D0A24AD2F86B
:1020D000883023F0C003A16C0B43C2F8883023681A
:1020E00013F0100F08D09C4AD2F8883023F44073C4
:1020F000E16C0B43C2F88830236813F0200F08D03E
:10210000954AD2F8883023F44063216D0B43C2F81E
:102110008830236813F4007F08D08F4AD2F88830C3
:1021200023F44023616E0B43C2F88830236813F414
:10213000806F08D0884AD2F8883023F44013A16E0B
:102140000B43C2F88830236813F0400F08D0824A4E
:10215000D2F8883023F44053616D0B43C2F88830C5
:10216000236813F0800F08D07B4AD2F8883023F41C
:102170004043A16D0B43C2F88830236813F4807F7D
:1021800008D0754AD2F8883023F44033E16D0B4310
:10219000C2F88830236813F4801F08D06E4AD2F842
:1021A0009C3023F00303216E0B43C2F89C3023685C
:1021B00013F4005F11D0684AD2F8883023F04063EE
:1021C000616F0B43C2F88830636FB3F1006F00F0AA
:1021D0008A80B3F1806F00F08B80236813F4002FA6
:1021E0001FD0A36FB3F5804F00F08B805A4AD2F80E
:1021F0009C3023F48043C2F89C30D2F8883023F01E
:102200004063A16F0B43C2F88830A36FB3F1006F36
:102210007FD0B3F5804F00F08280B3F1806F00F083
:102220008480236813F4802F0FD04B4AD2F8883073
:1022300023F04063E16F0B43C2F88830E36FB3F1E2
:10224000006F7BD0B3F1806F7DD0236813F4804F93
:102250000ED0414AD2F8883023F04053D4F8801091
:102260000B43C2F88830D4F88030B3F1805F75D06A
:10227000236813F4803F09D0374AD2F89C3023F00A
:102280000403D4F884100B43C2F89C30236813F481
:10229000001F09D0304AD2F89C3023F01803D4F83C
:1022A00088100B43C2F89C30236813F0807F0ED057
:1022B000294AD2F89C3023F44013D4F88C100B43F5
:1022C000C2F89C30D4F88C30B3F5001F4ED038469D
:1022D00002B0BDE8F0813746C9E61F4A936D23F08E
:1022E00080539365C7E6D36843F48013D36074E7E3
:1022F0000121201DFFF71EFD00283FF46EAF0746A9
:102300006BE7154AD2F89C3043F48043C2F89C3006
:102310007BE7114AD36843F48013D36081E70E4A08
:10232000D36843F48033D3607BE70121201DFFF79E
:1023300001FD00283FF475AF074672E7D36843F408
:102340008013D36081E70121201DFFF7F3FC0028F3
:102350003FF47BAF074678E7001002400221201DC2
:10236000FFF7E8FC002883D0074681E7D36843F4F1
:102370008013D360ABE700BF024A136843F0040345
:102380001360704700100240F0B583B0002362E094
:1023900085685E000324B44025EA0405CC68B44097
:1023A0002C438460456825EA0C054C68C4F300148E
:1023B0009C402C43446060E0DD08083550F825401F
:1023C00003F0070C4FEA8C0C4FF00F0E0EFA0CFEC8
:1023D00024EA0E0E0C6904FA0CF444EA0E0440F8E8
:1023E000254061E0072400E0002404FA0EF42C43A9
:1023F0000CF1020C5C4D45F82C405C4CA568D443B4
:1024000025EA02064F6817F4801F01D042EA05064C
:10241000564DAE60ED6804EA05064F6817F4001FDC
:1024200001D042EA0506514DEE606D6804EA0506EA
:102430004F6817F4003F01D042EA05064B4D6E602D
:102440002D682C404E6816F4803F01D042EA050406
:10245000464A146001330A6832FA03F400F08180BE
:102460004FF0010C0CFA03FC1CEA0202F2D04C689B
:1024700004F00304013C012C8AD94C6804F00304E5
:10248000032C0CD0C4685D004FF0030C0CFA05FC63
:1024900024EA0C0C8C68AC4044EA0C04C4604C6820
:1024A00004F00304022C87D004684FEA430E4FF077
:1024B000030C0CFA0EFC24EA0C0C4C6804F0030428
:1024C00004FA0EF444EA0C0404604C6814F4403F2F
:1024D000C0D0274C256E45F001052566246E04F01A
:1024E00001040194019C4FEA930C0CF102051E4C6F
:1024F00054F8255003F0030E4FEA8E0E0F2404FA11
:102500000EF425EA0405B0F1904F3FF46DAF194C7D
:10251000A0421AD004F58064A04218D004F580646B
:10252000A04216D004F58064A04214D004F5806463
:10253000A04212D004F58064A04210D004F580645B
:10254000A0423FF44FAF08244FE701244DE7022497
:102550004BE7032449E7042447E7052445E706241D
:1025600043E703B0F0BD00BF00000140000401409C
:1025700000100240000400480AB181617047816286
:102580007047704708B5054B5B69034200D108BD31
:10259000024B5861FFF7F5FFF9E700BF0004014067
:1025A000024A136843F48073136070470070004060
:1025B000074B186800F4C060B0F5806F04D0D3F802
:1025C000800010F4807000D170474FF40070FBE77A
:1025D00000700040002836D13E4B1B6803F4C063F6
:1025E000B3F5806F08D03B4AD2F8803023F4807373
:1025F000C2F8803000207047364AD2F8803023F489
:102600008073C2F88030136823F4C06343F400730E
:102610001360314B1B68322202FB03F32F4AA2FBEB
:1026200003239B0C013300E0013B2A4A526912F458
:10263000806F01D0002BF7D1264B5B6913F4806FBC
:1026400044D100207047B0F5007F08D0214A1368BC
:1026500023F4C06343F480631360002070471D4B74
:102660001B6803F4C063B3F5806F08D0194AD2F831
:10267000803043F48073C2F8803000207047154AE0
:10268000D2F8803043F48073C2F88030136823F4AA
:10269000C06343F4007313600F4B1B68322202FBCC
:1026A00003F30E4AA2FB03239B0C013300E0013B22
:1026B000084A526912F4806F01D0002BF7D1054B04
:1026C0005B6913F4806F03D10020704703207047CB
:1026D00003207047007000400800002083DE1B4389
:1026E000002807DB00F01F02400901239340024A43
:1026F00042F82030704700BF00E100E0002808DB0E
:102700000901C9B200F1604000F5614080F8001392
:10271000704700F00F000901C9B2014B195470470E
:1027200014ED00E000B500F00700C0F1070CBCF1AB
:10273000040F28BF4FF0040C031D062B0FD9C31E36
:102740004FF0FF3E0EFA0CF021EA000199400EFA1C
:1027500003FE22EA0E0241EA02005DF804FB0023B8
:10276000EEE70000074AD36823F4E0631B041B0C68
:10277000000200F4E060034343F0BF6343F400331E
:10278000D360704700ED00E010B50446054BD868F3
:10279000C0F30220FFF7C6FF01462046FFF7AEFF59
:1027A00010BD00BF00ED00E008B5FFF799FF08BDC0
:1027B0000138B0F1807F0BD24FF0E0235861054A19
:1027C000F02182F823100020986107221A617047D7
:1027D0000120704700ED00E010B50368C3F300422C
:1027E00003F01F03012199405301044A9C580C42F5
:1027F00003D09950436803B1984710BD14040140B9
:1028000010B430300B0A9B0003F00C03C45801F0E5
:102810001F014FF01F0C0CFA01FC24EA0C0CC2F350
:1028200084628A404CEA0202C2505DF8044B704751
:1028300010B414304B0E9B0003F00403C458C1F3D2
:1028400004514FF0070C0CFA01FC24EA0C0C8A40EE
:102850004CEA0202C2505DF8044B704730B583B0B9
:1028600000230193002800F0DC800446836D13B33D
:1028700023689A6812F0005F05D09A6822F020421F
:1028800022F03F029A602268936813F0805F1FD1A4
:10289000936823F0104323F03F0343F08053936089
:1028A000614B1B689B09614AA2FB03239B0901330F
:1028B0005B00019309E0FEF783F80023E36584F8E9
:1028C0005430D5E7019B013B0193019B002BF9D1CB
:1028D0002268936813F0805F7AD1A36D43F01003F0
:1028E000A365E36D43F00103E3650120936813F0F2
:1028F000040300D00123A16D11F0100F40F08A8075
:10290000002B40F08780A36D23F4817343F0020312
:10291000A365936813F0010F0BD1454B9B6813F02F
:10292000010F06D1636843498A6822F47C1213437D
:102930008B60627E636B43EA4233E2681343A268B2
:10294000134394F8202043EA0243012A42D0A26AAA
:1029500022B102F47072E16A0A4313432168CD6820
:10296000354A2A401A43CA6021688B6813F0040371
:1029700000D001238A6812F0080200D00122C3B9F6
:10298000BAB9E36C227E43EA823394F8302043EAFA
:102990004202CB6823F4804323F006031343CB6049
:1029A00094F83830012B1AD02268136923F0010300
:1029B00013612369012B24D02268136B23F00F03CA
:1029C0001363A36D23F0030343F00103A36526E023
:1029D00000208BE7626A013A43EA4243B7E7216885
:1029E0000B6923F4FF6323F00403E26B256C2A4395
:1029F000656C2A43A56C2A43134343F001030B6122
:102A0000D7E721680B6B23F00F03E269013A134308
:102A10000B63D6E7A36D43F01003A365012003B059
:102A200030BD0120FBE700BF08000020632D3E05FC
:102A3000000004500003045007C0F0FFF0B583B05D
:102A40000023019390F85430012B00F014820446C7
:102A50000D46012380F8543003689B6813F0040F7F
:102A600009D0836D43F0200383650120002384F89F
:102A7000543003B0F0BD4B68052B08D8023B032B44
:102A800079D8DFE803F0026E71740C234B602A687A
:102A900069682068FFF7B4FE2068836813F00403B8
:102AA00000D00123826812F0080200D0012223BB6B
:102AB0001ABBAA68B2F1004F60D02968FFF7B8FED0
:102AC0002268536923F00043536169692268D3681F
:102AD000C3F3C1035B0099402869042858D02E68CD
:102AE000603252F82070AA4B3B4006F0F846314362
:102AF0000B4343F0004342F820302268936813F000
:102B0000010F17D12B68E868D2F8B010C3F3120692
:102B100021EA060100F0180C9E4820FA0CF0034050
:102B2000C3F312030B43C2F8B030EA689A4B9A42DF
:102B300000F095802B68994A134200F09881984ADA
:102B4000926802F0E07097498B4200F0428196490A
:102B50008B4200F0658195498B4200F07581002021
:102B600084E712234B6092E718234B608FE74FF402
:102B700080734B608BE706234B6088E7002229684F
:102B8000FFF756FE2268536943F0004353619CE708
:102B9000136E116EC1F384612B68C3F3120078BB0E
:102BA000C3F38463994233D021684B6E4A6EC2F3FB
:102BB00084622B68C3F3120078BBC3F384639A4228
:102BC00033D021688B6E8A6EC2F384622B68C3F3A4
:102BD000120078BBC3F384639A4233D02168CB6E72
:102BE000CA6EC2F384622B68C3F3120078BBC3F3CE
:102BF00084639A4281D1CB6E23F00043CB667CE79D
:102C000093FAA3F313B1B3FA83F3CBE72023C9E715
:102C1000136E23F000431366C6E793FAA3F313B1D0
:102C2000B3FA83F3CBE72023C9E74B6E23F00043CD
:102C30004B66C6E793FAA3F313B1B3FA83F3CBE77A
:102C40002023C9E78B6E23F000438B66C6E793FA17
:102C5000A3F313B1B3FA83F3CBE72023C9E72068CA
:102C60002B68C3F3120626BB9A0E013202F01F0234
:102C7000092A8CBF00220122002A52D046BB990E9D
:102C80000131890601F0F84176BB9F0E013707F04C
:102C90001F070122BA401143AEBB9B0E013303F064
:102CA0001F0303EB43031B051943AA68FFF7C0FD8D
:102CB00040E793FAA3F24AB1B2FA82F2013202F08B
:102CC0001F02092A8CBF00220122D5E72022F5E746
:102CD00093FAA3F131B1B1FA81F10131890601F022
:102CE000F841D1E72021F8E793FAA3F24AB1B2FA0A
:102CF00082F2013202F01F024FF0010C0CFA02F2D4
:102D0000C9E72022F5E793FAA3F343B1B3FA83F3BB
:102D1000013303F01F0303EB43031B05C4E7202328
:102D2000F6E7CEB9990E0131890601F0F841FEB9F6
:102D30009F0E013707F01F070122BA401143BEBBA7
:102D40009B0E013303F01F0303EB43031E3B1B05E4
:102D500043F000731943A8E793FAA3F131B1B1FA34
:102D600081F10131890601F0F841E0E72021F8E71F
:102D700093FAA3F24AB1B2FA82F2013202F01F02D0
:102D80004FF0010C0CFA02F2D8E72022F5E700BF61
:102D900000F0FF03FFFF070000007F4000000880F5
:102DA00000030450000052C7000084CB01000080E3
:102DB00093FAA3F35BB1B3FA83F3013303F01F0378
:102DC00003EB43031E3B1B0543F00073C2E72023C4
:102DD000F3E712F4000F7FF4BAAE2268274B9A4251
:102DE00001D0002042E640F4000325498A6822F021
:102DF000E07213438B60234B1B689B09224AA2FBA2
:102E000003239B09013303EB43039B00019302E07F
:102E1000019B013B0193019B002BF9D1002025E68A
:102E200012F0807F7FF497AE2268144B9A4201D053
:102E300000201BE640F0807311498A6822F0E0729E
:102E400013438B60002011E612F4800F11D1226829
:102E50000A4B9A4201D0002008E640F4800308495A
:102E60008A6822F0E07213438B600020FEE50020A8
:102E7000FCE50020FAE50220FBE500BF000004505D
:102E80000003045008000020632D3E05124B9842B9
:102E900015D02033984214D02033984213D04033B9
:102EA000984212D02033984211D02033984210D04B
:102EB0002033984201D0032070470720704700203C
:102EC000704701207047022070470420704705209A
:102ED00070470620704700BF00600140002878D08E
:102EE00010B504460068FFF7D1FF3B4B53F8203084
:102EF0000BB1012010BD2046FDF794FD374B1A6839
:102F000001321A601B68012B45D02268136823F434
:102F10007143136021680A68236960690343A069EB
:102F2000034313430B602268136823F00F031360FD
:102F300021680B68E269206A024313430B60226830
:102F4000936823F45F03936020688368626AA16AD0
:102F5000013942EA0142134383602268536803F057
:102F60000703536021684A68E06A236BDB0043EA89
:102F7000002313434B602268136843F080031360FF
:102F8000012384F834302068FFF780FF124B43F8A8
:102F900020400020AEE7124B1A6822F080421A60EF
:102FA0001A68A1680A431A601A6822F47F021A603C
:102FB0002379012B05D00A4A136843F000431360BC
:102FC000A3E707490B68E268013A43EA02430B6052
:102FD000F1E70120704700BF78040020980400202A
:102FE00000600140431EDBB2012B01D90120704774
:102FF00000295DD010B400230B604B608B60CB6068
:103000000B61022802D01C4600220BE0294CFBE792
:10301000501C40F08070C86036E0531C43F0807351
:103020000B610132012A3FD89000234B1B5813F04B
:10303000010F06D084EA030010F0020F01D1501CEA
:10304000086013F0100F06D084EA030010F0200F80
:1030500001D1501C486013F4807F06D084EA03003D
:1030600010F4007F01D1501C886013F4803F0BD016
:1030700084EA030010F4802F06D113F4003FC7D177
:10308000501C40F48030C86013F0807FC9D084EABF
:10309000030010F0806FC4D113F0007FBDD1531C2A
:1030A00043F480330B61BCE700205DF8044B7047AC
:1030B0000120704722020404041C06502DE9F84345
:1030C00005460F4616469946DDF820802C68246A8E
:1030D0003C4214BF4FF0010C4FF0000CB44514D02B
:1030E000B8F1FF3FF2D0FDF76BFFA0EB09004045C0
:1030F00002D8B8F1000FE9D14FF400736B64AB6CE8
:1031000043F00103AB64012000E00020BDE8F88338
:10311000C16400207047000030B583B00446FDF75D
:103120004FFF002C6BD005460023A364636C13B1E2
:10313000002003B030BD2046FDF732FD41F288315A
:103140002046FFF7E5FF206882682E4B1340E268B7
:103150002169013942EA01426169013942EA0122E9
:10316000216B0A43E1690A4313438360E36A2268DF
:103170001B04136121680B6823F4F8536268013A59
:1031800043EA02230B60E36C00932B4600222021CC
:103190002046FFF793FF0028CBD12168CB6823F0AE
:1031A000FF03226A013A1343CB602268136823F0BD
:1031B0004003A1680B4313602168D1F8083123F064
:1031C000A043626AA56A2A431343C1F80831226802
:1031D000136843F001031360A369022B06D0E36870
:1031E000B3F1806F08D002236364A2E7226893687A
:1031F00043F002039360F2E70123636499E701203F
:1032000097E700BFF4F8E0F82DE9F0438BB0814672
:103210000D460268B24B9A4205D04FF000080126D5
:1032200000231F4604E04FF001080026F8E723467C
:10323000012B0FD85C1CE4B203EB83030DEB83017D
:103240002046FFF7CFFE0028F1D00823C9F8483008
:103250000127ECE7002F40F02C81A14B1B6813F0F5
:10326000010F00F02A819E4A136823F001031360C6
:1032700001219C4B1B6813F0010F07D0994A13687A
:1032800023F00103136041F00201C9B206EB86028C
:103290000AAB03EB820252F8203C013B9B009248B0
:1032A0001844436823F48073436052F8283C002B91
:1032B0003BD0013B9B008C4A1A44536823F0010326
:1032C000536006EB86030AAA02EB830353F8243CFF
:1032D0003BB1013B9B00844A1A44536823F010031E
:1032E000536006EB86030AAA02EB830353F81C3CE7
:1032F0004BB1013B03F001039B007B4A1A44536826
:1033000023F48033536006EB86030AAA02EB83039F
:1033100053F8183C4BB1013B03F001039B00724A88
:103320001A44536823F0807353602A68434608EBBD
:1033300088000AAC04EB800050F8280C824217D0B9
:103340006A6808EB880804EB880858F8244CA24205
:103350000ED0AC6858F8202C944209D0EC6858F88C
:103360001C2C944204D02C6958F8182C944245D156
:10337000013880005C4A0244506820F0010050602F
:1033800003EB83020AA800EB820252F8242C3AB124
:10339000013A920054481044426822F01002426000
:1033A00003EB83000AAA02EB800050F8202C013ABC
:1033B00092004D4C1444626822F48072626050F8AE
:1033C0001C2C4AB1013A02F0010292004648104416
:1033D000426822F48032426003EB83030AAA02EBC4
:1033E000830353F8183C4BB1013B03F001039B00EE
:1033F0003D4A1A44536823F080735360AA68013A27
:10340000394800EB8202536823F4407343EA4623B1
:1034100043F4807353602B68013B00EB83025368D5
:1034200023F0030343EA460343F0010353606B6850
:103430005BB1013B9B0002461A44536823F0300302
:1034400043EA461343F010035360EB6813F4803FE4
:1034500035D0013B03F001039B00234A1A44536813
:1034600023F4E02343EA864343F4803353602B691B
:1034700013F4803F3AD0013B03F001039B001A4A4A
:103480001A44536823F4E02343EA864343F4403369
:10349000536011F0010F04D0114A136843F0010387
:1034A000136011F0020F04D00E4A136843F00103B9
:1034B000136038460BB0BDE8F0833946D9E6002BDF
:1034C000D5D0013B03F001039B00074A1A4453681F
:1034D00023F0E06343EA866343F080735360C6E7FA
:1034E000001000A0001400A0001C0650002BD0D03B
:1034F000013B03F001039B00054A1A44536823F083
:10350000E06343EA866343F040735360C1E700BF62
:10351000001C065070B504460168836802691343B5
:1035200042691343C26913430868964A02401A432A
:103530000A602268536823F44053E1680B435360E8
:10354000A1692268904B9A4201D0236A194393687B
:1035500023F06E4323F430630B4393602268D36AF5
:1035600023F00F03616A0B43D3622368874A9342B7
:1035700010D0874A934221D0864A934237D0864A58
:1035800093425CD0854A93426BD07F4A93427DD070
:1035900010223AE002F55842D2F8882002F00302E5
:1035A000032A09D8DFE802F00204870601222CE092
:1035B00004222AE0082228E0102226E002F5E63262
:1035C000D2F8882002F00C020C2A0ED8DFE802F0B4
:1035D000070D0D0D090D0D0D750D0D0D0B000022C4
:1035E00013E0042211E008220FE010220DE002F5A2
:1035F000E432D2F8882002F03002202A5FD01AD8B4
:10360000002A5ED0102A5ED104225F498B4276D018
:10361000E069B0F5004F00F0C980082A00F234815B
:10362000DFE812F0F7001901F50032011C01320148
:10363000320132011F01302A47D10822E5E702F5A5
:10364000E232D2F8882002F0C002802A3FD004D8AB
:10365000FAB3402A3FD10422D7E7C02A3DD108223D
:10366000D3E702F5E032D2F8882002F44072B2F5D6
:10367000007F34D005D8A2B3B2F5807F33D10422C5
:10368000C3E7B2F5407F30D10822BEE702F5C83269
:10369000D2F8882002F44062B2F5006F27D005D836
:1036A0003AB3B2F5806F26D10422AEE7B2F5406F8F
:1036B00023D10822A9E70222A7E70222A5E70222D6
:1036C000A3E70022A1E710229FE710229DE7022234
:1036D0009BE7002299E7102297E7102295E7022244
:1036E00093E7002291E710228FE710228DE7022254
:1036F0008BE7002289E7102287E7102285E7082A56
:1037000000F2B280DFE802F008B03BB038B0B0B0F1
:1037100005004FF4004004E0FEF734FA002800F002
:10372000A580626A1E4B33F81220B0FBF2F3656885
:1037300005EB4501994200F29B80B3EB053F00F297
:103740009980002633463146FCF73AFD090241EAEA
:10375000106100026B08C0182A46334641F100018F
:10376000FCF72EFDA0F540720E4B9A4200F28480C9
:103770002368D860304665E0FDF764FDCEE70A486F
:10378000CFE700BFF369FFCF008000400038014061
:103790000044004000480040004C00400050004001
:1037A000B03F0008FFFC0F000024F400082A65D891
:1037B000DFE802F0072705642A6464640B003548DB
:1037C00003E0FEF7DFF900285AD0626A324B33F883
:1037D0001230B0FBF3F06268530803EB4003B3FB15
:1037E000F2F3A3F110014FF6EF7291424AD89AB268
:1037F00022F00F02C3F3420313432268D360002078
:1038000020E0FEF7D1F9DEE7FDF71CFDDBE72148FC
:1038100003E0FEF7B7F9002838D0626A1E4B33F890
:103820001230B0FBF3F0636800EB5300B0FBF3F031
:10383000A0F110024FF6EF739A4229D8236880B2A4
:10384000D86000200123A4F86A30A4F8683000236F
:103850002367636770BDFEF7A7F9DCE7FDF7F2FCAD
:10386000D9E74FF40040D8E70120EBE70020E9E773
:103870000120E7E70120E5E70120E3E70120E1E798
:103880000020DFE70120DDE70120DBE70020D9E7AA
:103890000120D7E70024F400B03F0008836A13F04A
:1038A000010F06D00268536823F40033C16A0B434A
:1038B0005360836A13F0020F06D00268536823F442
:1038C0008033016B0B435360836A13F0040F06D0FF
:1038D0000268536823F48023416B0B435360836A6F
:1038E00013F0080F06D00268536823F40043816B7D
:1038F0000B435360836A13F0100F06D0026893687D
:1039000023F48053C16B0B439360836A13F0200F41
:1039100006D00268936823F40053016C0B43936054
:10392000836A13F0400F0AD00268536823F48013AF
:10393000416C0B435360436CB3F5801F0BD0836A1B
:1039400013F0800F06D00268536823F40023C16C83
:103950000B43536070470268536823F4C003816CC3
:103960000B435360EBE72DE9F84305460F46164637
:103970009946DDF820802B68DC6937EA04040CBF27
:1039800001240024B44257D1B8F1FF3FF3D0FDF732
:1039900017FBA0EB090040452FD8B8F1000F2CD041
:1039A0002B681A6812F0040FE5D0DA6912F4006F80
:1039B000E1D04FF400621A622A6852E8003F23F413
:1039C000D07342E800310029F6D12A6802F10803D9
:1039D00053E8003F23F00103083242E80031002998
:1039E000F3D12023C5F88430C5F88830C5F88C3071
:1039F000002385F8803003201FE02A6852E8003F4A
:103A000023F4D07342E800310029F6D12A6802F18C
:103A1000080353E8003F23F00103083242E8003175
:103A20000029F3D12023C5F88430C5F8883000235D
:103A300085F88030032000E00020BDE8F88330B531
:103A400083B004460023C0F88C30FDF7B9FA054670
:103A50002268126812F0080F0FD123681B6813F058
:103A6000040F18D12023C4F88430C4F88830002013
:103A7000E06684F8800003B030BD6FF07E430093B1
:103A8000034600224FF400112046FFF76CFF002888
:103A9000E3D00320EFE76FF07E4300932B46002234
:103AA0004FF480012046FFF75EFF0028DAD00320A4
:103AB000E1E778B310B50446D0F884300BB3242383
:103AC000C4F884302268136823F001031360204691
:103AD000FFF720FD012813D0A36ABBB92268536801
:103AE00023F4904353602268936823F02A03936081
:103AF0002268136843F0010313602046FFF79FFF1D
:103B000010BD80F88030FDF7CFF8D8E72046FFF7EA
:103B1000C5FEE3E701207047436E2BB90123A0F8EF
:103B20006A30A0F86830704730B403689A68C2F30E
:103B300042629968490F094D6B5CDB00084C615C7F
:103B400093FBF1F3A0F86A30AB5CDB00A25C93FB63
:103B5000F2F3A0F8683030BC704700BFD03F0008D7
:103B6000C83F000890F88030012B18D0012380F85E
:103B700080302423C0F8843003681A68196821F063
:103B80000101196022F000520023436601680A60B7
:103B90002022C0F8842080F8803018467047022028
:103BA000704738B590F88030012B1DD004460123B2
:103BB00080F880302423C0F8843003681D681A68B8
:103BC00022F001021A600268936823F060431943EF
:103BD0009160FFF7A1FF23681D602023C4F88430A3
:103BE000002084F8800038BD0220FCE738B590F84A
:103BF0008030012B1DD00446012380F8803024231F
:103C0000C0F8843003681D681A6822F001021A6047
:103C10000268936823F0606319439160FFF77CFFAB
:103C200023681D602023C4F88430002084F88000BD
:103C300038BD0220FCE70000034AD2F8883043F484
:103C40007003C2F88830704700ED00E0DFF834D030
:103C5000FFF7F2FF0C480D490D4A002302E0D4584B
:103C6000C4500433C4188C42F9D30A4A0A4C0023C6
:103C700001E013600432A242FBD300F011F8FCF71C
:103C80002CFEFEE700000A200000002010000020AB
:103C900038400008100000209C040020FEE70000CF
:103CA00070B50D4D0D4C641BA4100026A64209D121
:103CB0000B4D0C4C00F070F9641BA4100026A642BA
:103CC00005D170BD55F8043B98470136EEE755F82D
:103CD000043B98470136F2E72840000828400008D6
:103CE000284000082C40000802440346934200D1BB
:103CF000704703F8011BF9E72DE9F04786468C462B
:103D00000846089E154674461946002B40F0C280AE
:103D10008542B2FA82F245D94AB1C2F1200300FAD3
:103D200002FC2EFA03F3954043EA0C0C94404FEA50
:103D3000154EA8B2BCFBFEF8230C0EFB18CC08FBFA
:103D400000F943EA0C43994528D9EB1808F1FF37ED
:103D500004D2994502D9A8F102072B44A3EB090329
:103D6000A4B2B3FBFEFC0EFB1C330CFB00F044EAD8
:103D70000344A04214D92C190CF1FF3304D2A04201
:103D800002D9ACF102032C44241A43EA07401EB1C5
:103D9000D440002334607360BDE8F0874746DDE718
:103DA0006346F1E792BB431B01214FEA154EAFB2C8
:103DB000B3FBFEFC200C0EFB1C330CFB07F840EAA7
:103DC0000343984562D9EB180CF1FF3004D29845B3
:103DD00002D9ACF102002B44A3EB0803A4B2B3FB5D
:103DE000FEFC0EFB1C330CFB07F744EA0344A7421E
:103DF0004ED92C190CF1FF3304D2A74202D9ACF1F1
:103E000002032C44E41B43EA0040C0E7C2F1200354
:103E100020FA03F1954090402EFA03F303434FEA52
:103E2000154EAFB2B1FBFEFC0EFB1C10190C0CFBC7
:103E300007F841EA0041884504FA02F422D96918DA
:103E40000CF1FF3004D2884502D9ACF102002944BC
:103E5000A1EB08019BB2B1FBFEFC0EFB1C110CFB9D
:103E600007F743EA01439F420ED9EB180CF1FF31EB
:103E700004D29F4202D9ACF102012B44DB1B41EA80
:103E8000004192E76046E3E76146F7E76046A3E753
:103E90006346B7E7834206D916B9002108467BE797
:103EA000C6E900E0F9E7B3FA83F78FB9834201D39B
:103EB000724508D8BEEB020460EB030301209C4668
:103EC0001EB9002168E73846FAE7C6E9004CF8E772
:103ED000C7F1200CBB4022FA0CF41C432EFA0CF163
:103EE00020FA0CF3B84001434FEA14490EFA07F5E3
:103EF000B3FBF9F81FFA84FE09FB18300B0C08FB22
:103F00000EFA43EA00439A4502FA07F240D9E31851
:103F100008F1FF3004D29A4502D9A8F102002344E7
:103F2000A3EB0A0389B2B3FBF9F809FB183308FBCA
:103F30000EFE41EA03418E452CD9611808F1FF338A
:103F400004D28E4502D9A8F10203214443EA00407D
:103F5000A0FB0298A1EB0E014145CE46434602D399
:103F600006D14D4504D2B9EB020E68EB04030138CB
:103F7000002EA6D0B5EB0E0261EB030101FA0CFC9A
:103F800022FA07F34CEA0303F940C6E9003198E747
:103F90004046C5E74346D9E7F8B500BFF8BC08BCC2
:103FA0009E467047F8B500BFF8BC08BC9E467047F7
:103FB000010002000400060008000A000C001000C6
:103FC00020004000800000010804020408010101F3
:103FD0000101010307010000A0860100400D03005C
:103FE000801A060000350C0040420F0080841E003D
:103FF00000093D0000127A000024F40000366E0132
:104000000048E801006CDC0200000000010203042B
:104010000000000000000000010203040607080978
:08402000D8FCFF7F0100000045
:0840280019020008000000006D
:08403000F5010008000000008A
:10403800010000001000000000093D000000000021
:0400000508003C4D66
:00000001FF
